{
  "_format": "hh-sol-artifact-1",
  "contractName": "Cryptonite",
  "sourceName": "contracts/Cryptonite.sol",
  "abi": [
    {
      "inputs": [],
      "stateMutability": "nonpayable",
      "type": "constructor"
    },
    {
      "anonymous": false,
      "inputs": [
        {
          "indexed": true,
          "internalType": "address",
          "name": "previousOwner",
          "type": "address"
        },
        {
          "indexed": true,
          "internalType": "address",
          "name": "newOwner",
          "type": "address"
        }
      ],
      "name": "OwnershipTransferred",
      "type": "event"
    },
    {
      "anonymous": false,
      "inputs": [
        {
          "indexed": true,
          "internalType": "bytes32",
          "name": "role",
          "type": "bytes32"
        },
        {
          "indexed": true,
          "internalType": "bytes32",
          "name": "previousAdminRole",
          "type": "bytes32"
        },
        {
          "indexed": true,
          "internalType": "bytes32",
          "name": "newAdminRole",
          "type": "bytes32"
        }
      ],
      "name": "RoleAdminChanged",
      "type": "event"
    },
    {
      "anonymous": false,
      "inputs": [
        {
          "indexed": true,
          "internalType": "bytes32",
          "name": "role",
          "type": "bytes32"
        },
        {
          "indexed": true,
          "internalType": "address",
          "name": "account",
          "type": "address"
        },
        {
          "indexed": true,
          "internalType": "address",
          "name": "sender",
          "type": "address"
        }
      ],
      "name": "RoleGranted",
      "type": "event"
    },
    {
      "anonymous": false,
      "inputs": [
        {
          "indexed": true,
          "internalType": "bytes32",
          "name": "role",
          "type": "bytes32"
        },
        {
          "indexed": true,
          "internalType": "address",
          "name": "account",
          "type": "address"
        },
        {
          "indexed": true,
          "internalType": "address",
          "name": "sender",
          "type": "address"
        }
      ],
      "name": "RoleRevoked",
      "type": "event"
    },
    {
      "inputs": [],
      "name": "DEFAULT_ADMIN_ROLE",
      "outputs": [
        {
          "internalType": "bytes32",
          "name": "",
          "type": "bytes32"
        }
      ],
      "stateMutability": "view",
      "type": "function"
    },
    {
      "inputs": [],
      "name": "citybeat",
      "outputs": [
        {
          "internalType": "uint256",
          "name": "",
          "type": "uint256"
        }
      ],
      "stateMutability": "view",
      "type": "function"
    },
    {
      "inputs": [
        {
          "internalType": "string",
          "name": "name",
          "type": "string"
        },
        {
          "internalType": "string",
          "name": "description",
          "type": "string"
        },
        {
          "internalType": "string",
          "name": "image",
          "type": "string"
        },
        {
          "internalType": "string",
          "name": "location",
          "type": "string"
        },
        {
          "internalType": "uint256",
          "name": "amount",
          "type": "uint256"
        }
      ],
      "name": "createEvent",
      "outputs": [],
      "stateMutability": "nonpayable",
      "type": "function"
    },
    {
      "inputs": [
        {
          "internalType": "string",
          "name": "userName",
          "type": "string"
        },
        {
          "internalType": "string",
          "name": "email",
          "type": "string"
        },
        {
          "internalType": "string",
          "name": "phone",
          "type": "string"
        }
      ],
      "name": "createUser",
      "outputs": [
        {
          "internalType": "bool",
          "name": "",
          "type": "bool"
        },
        {
          "internalType": "string",
          "name": "",
          "type": "string"
        }
      ],
      "stateMutability": "nonpayable",
      "type": "function"
    },
    {
      "inputs": [
        {
          "internalType": "uint256",
          "name": "id",
          "type": "uint256"
        }
      ],
      "name": "deleteEvent",
      "outputs": [],
      "stateMutability": "nonpayable",
      "type": "function"
    },
    {
      "inputs": [
        {
          "internalType": "uint256",
          "name": "",
          "type": "uint256"
        }
      ],
      "name": "eventExist",
      "outputs": [
        {
          "internalType": "bool",
          "name": "",
          "type": "bool"
        }
      ],
      "stateMutability": "view",
      "type": "function"
    },
    {
      "inputs": [
        {
          "internalType": "uint256",
          "name": "id",
          "type": "uint256"
        }
      ],
      "name": "getEvent",
      "outputs": [
        {
          "components": [
            {
              "internalType": "uint256",
              "name": "id",
              "type": "uint256"
            },
            {
              "internalType": "address",
              "name": "owner",
              "type": "address"
            },
            {
              "internalType": "string",
              "name": "name",
              "type": "string"
            },
            {
              "internalType": "string",
              "name": "description",
              "type": "string"
            },
            {
              "internalType": "string",
              "name": "image",
              "type": "string"
            },
            {
              "internalType": "string",
              "name": "location",
              "type": "string"
            },
            {
              "internalType": "uint256",
              "name": "amount",
              "type": "uint256"
            },
            {
              "internalType": "uint256",
              "name": "donations",
              "type": "uint256"
            },
            {
              "internalType": "uint256",
              "name": "raised",
              "type": "uint256"
            },
            {
              "internalType": "uint256",
              "name": "timestamp",
              "type": "uint256"
            },
            {
              "internalType": "bool",
              "name": "deleted",
              "type": "bool"
            },
            {
              "internalType": "bool",
              "name": "isLive",
              "type": "bool"
            }
          ],
          "internalType": "struct Cryptonite.EventStruct",
          "name": "",
          "type": "tuple"
        }
      ],
      "stateMutability": "view",
      "type": "function"
    },
    {
      "inputs": [],
      "name": "getEvents",
      "outputs": [
        {
          "components": [
            {
              "internalType": "uint256",
              "name": "id",
              "type": "uint256"
            },
            {
              "internalType": "address",
              "name": "owner",
              "type": "address"
            },
            {
              "internalType": "string",
              "name": "name",
              "type": "string"
            },
            {
              "internalType": "string",
              "name": "description",
              "type": "string"
            },
            {
              "internalType": "string",
              "name": "image",
              "type": "string"
            },
            {
              "internalType": "string",
              "name": "location",
              "type": "string"
            },
            {
              "internalType": "uint256",
              "name": "amount",
              "type": "uint256"
            },
            {
              "internalType": "uint256",
              "name": "donations",
              "type": "uint256"
            },
            {
              "internalType": "uint256",
              "name": "raised",
              "type": "uint256"
            },
            {
              "internalType": "uint256",
              "name": "timestamp",
              "type": "uint256"
            },
            {
              "internalType": "bool",
              "name": "deleted",
              "type": "bool"
            },
            {
              "internalType": "bool",
              "name": "isLive",
              "type": "bool"
            }
          ],
          "internalType": "struct Cryptonite.EventStruct[]",
          "name": "Events",
          "type": "tuple[]"
        }
      ],
      "stateMutability": "view",
      "type": "function"
    },
    {
      "inputs": [],
      "name": "getMyEvents",
      "outputs": [
        {
          "components": [
            {
              "internalType": "uint256",
              "name": "id",
              "type": "uint256"
            },
            {
              "internalType": "address",
              "name": "owner",
              "type": "address"
            },
            {
              "internalType": "string",
              "name": "name",
              "type": "string"
            },
            {
              "internalType": "string",
              "name": "description",
              "type": "string"
            },
            {
              "internalType": "string",
              "name": "image",
              "type": "string"
            },
            {
              "internalType": "string",
              "name": "location",
              "type": "string"
            },
            {
              "internalType": "uint256",
              "name": "amount",
              "type": "uint256"
            },
            {
              "internalType": "uint256",
              "name": "donations",
              "type": "uint256"
            },
            {
              "internalType": "uint256",
              "name": "raised",
              "type": "uint256"
            },
            {
              "internalType": "uint256",
              "name": "timestamp",
              "type": "uint256"
            },
            {
              "internalType": "bool",
              "name": "deleted",
              "type": "bool"
            },
            {
              "internalType": "bool",
              "name": "isLive",
              "type": "bool"
            }
          ],
          "internalType": "struct Cryptonite.EventStruct[]",
          "name": "Events",
          "type": "tuple[]"
        }
      ],
      "stateMutability": "view",
      "type": "function"
    },
    {
      "inputs": [
        {
          "internalType": "bytes32",
          "name": "role",
          "type": "bytes32"
        }
      ],
      "name": "getRoleAdmin",
      "outputs": [
        {
          "internalType": "bytes32",
          "name": "",
          "type": "bytes32"
        }
      ],
      "stateMutability": "view",
      "type": "function"
    },
    {
      "inputs": [
        {
          "internalType": "uint256",
          "name": "id",
          "type": "uint256"
        }
      ],
      "name": "getUser",
      "outputs": [
        {
          "components": [
            {
              "internalType": "uint256",
              "name": "id",
              "type": "uint256"
            },
            {
              "internalType": "address",
              "name": "owner",
              "type": "address"
            },
            {
              "internalType": "string",
              "name": "userName",
              "type": "string"
            },
            {
              "internalType": "string",
              "name": "email",
              "type": "string"
            },
            {
              "internalType": "string",
              "name": "phone",
              "type": "string"
            }
          ],
          "internalType": "struct Cryptonite.UserStruct",
          "name": "",
          "type": "tuple"
        }
      ],
      "stateMutability": "view",
      "type": "function"
    },
    {
      "inputs": [
        {
          "internalType": "string",
          "name": "email",
          "type": "string"
        }
      ],
      "name": "getUserByEmail",
      "outputs": [
        {
          "components": [
            {
              "internalType": "uint256",
              "name": "id",
              "type": "uint256"
            },
            {
              "internalType": "address",
              "name": "owner",
              "type": "address"
            },
            {
              "internalType": "string",
              "name": "userName",
              "type": "string"
            },
            {
              "internalType": "string",
              "name": "email",
              "type": "string"
            },
            {
              "internalType": "string",
              "name": "phone",
              "type": "string"
            }
          ],
          "internalType": "struct Cryptonite.UserStruct",
          "name": "",
          "type": "tuple"
        }
      ],
      "stateMutability": "view",
      "type": "function"
    },
    {
      "inputs": [
        {
          "internalType": "string",
          "name": "userName",
          "type": "string"
        }
      ],
      "name": "getUserByUserName",
      "outputs": [
        {
          "components": [
            {
              "internalType": "uint256",
              "name": "id",
              "type": "uint256"
            },
            {
              "internalType": "address",
              "name": "owner",
              "type": "address"
            },
            {
              "internalType": "string",
              "name": "userName",
              "type": "string"
            },
            {
              "internalType": "string",
              "name": "email",
              "type": "string"
            },
            {
              "internalType": "string",
              "name": "phone",
              "type": "string"
            }
          ],
          "internalType": "struct Cryptonite.UserStruct",
          "name": "",
          "type": "tuple"
        }
      ],
      "stateMutability": "view",
      "type": "function"
    },
    {
      "inputs": [
        {
          "internalType": "bytes32",
          "name": "role",
          "type": "bytes32"
        },
        {
          "internalType": "address",
          "name": "account",
          "type": "address"
        }
      ],
      "name": "grantRole",
      "outputs": [],
      "stateMutability": "nonpayable",
      "type": "function"
    },
    {
      "inputs": [
        {
          "internalType": "bytes32",
          "name": "role",
          "type": "bytes32"
        },
        {
          "internalType": "address",
          "name": "account",
          "type": "address"
        }
      ],
      "name": "hasRole",
      "outputs": [
        {
          "internalType": "bool",
          "name": "",
          "type": "bool"
        }
      ],
      "stateMutability": "view",
      "type": "function"
    },
    {
      "inputs": [],
      "name": "owner",
      "outputs": [
        {
          "internalType": "address",
          "name": "",
          "type": "address"
        }
      ],
      "stateMutability": "view",
      "type": "function"
    },
    {
      "inputs": [],
      "name": "renounceOwnership",
      "outputs": [],
      "stateMutability": "nonpayable",
      "type": "function"
    },
    {
      "inputs": [
        {
          "internalType": "bytes32",
          "name": "role",
          "type": "bytes32"
        },
        {
          "internalType": "address",
          "name": "account",
          "type": "address"
        }
      ],
      "name": "renounceRole",
      "outputs": [],
      "stateMutability": "nonpayable",
      "type": "function"
    },
    {
      "inputs": [
        {
          "internalType": "bytes32",
          "name": "role",
          "type": "bytes32"
        },
        {
          "internalType": "address",
          "name": "account",
          "type": "address"
        }
      ],
      "name": "revokeRole",
      "outputs": [],
      "stateMutability": "nonpayable",
      "type": "function"
    },
    {
      "inputs": [
        {
          "internalType": "bytes4",
          "name": "interfaceId",
          "type": "bytes4"
        }
      ],
      "name": "supportsInterface",
      "outputs": [
        {
          "internalType": "bool",
          "name": "",
          "type": "bool"
        }
      ],
      "stateMutability": "view",
      "type": "function"
    },
    {
      "inputs": [
        {
          "internalType": "uint256",
          "name": "id",
          "type": "uint256"
        }
      ],
      "name": "toggleStatus",
      "outputs": [],
      "stateMutability": "nonpayable",
      "type": "function"
    },
    {
      "inputs": [
        {
          "internalType": "address",
          "name": "newOwner",
          "type": "address"
        }
      ],
      "name": "transferOwnership",
      "outputs": [],
      "stateMutability": "nonpayable",
      "type": "function"
    },
    {
      "inputs": [
        {
          "internalType": "uint256",
          "name": "id",
          "type": "uint256"
        },
        {
          "internalType": "string",
          "name": "name",
          "type": "string"
        },
        {
          "internalType": "string",
          "name": "description",
          "type": "string"
        },
        {
          "internalType": "string",
          "name": "image",
          "type": "string"
        },
        {
          "internalType": "string",
          "name": "location",
          "type": "string"
        },
        {
          "internalType": "uint256",
          "name": "amount",
          "type": "uint256"
        }
      ],
      "name": "updateEvent",
      "outputs": [],
      "stateMutability": "nonpayable",
      "type": "function"
    },
    {
      "inputs": [
        {
          "internalType": "uint256",
          "name": "id",
          "type": "uint256"
        },
        {
          "internalType": "string",
          "name": "userName",
          "type": "string"
        },
        {
          "internalType": "string",
          "name": "email",
          "type": "string"
        },
        {
          "internalType": "string",
          "name": "phone",
          "type": "string"
        }
      ],
      "name": "updateUser",
      "outputs": [],
      "stateMutability": "nonpayable",
      "type": "function"
    },
    {
      "inputs": [
        {
          "internalType": "string",
          "name": "",
          "type": "string"
        }
      ],
      "name": "userEmailExist",
      "outputs": [
        {
          "internalType": "bool",
          "name": "",
          "type": "bool"
        }
      ],
      "stateMutability": "view",
      "type": "function"
    },
    {
      "inputs": [
        {
          "internalType": "string",
          "name": "",
          "type": "string"
        }
      ],
      "name": "userEmailToId",
      "outputs": [
        {
          "internalType": "uint256",
          "name": "",
          "type": "uint256"
        }
      ],
      "stateMutability": "view",
      "type": "function"
    },
    {
      "inputs": [
        {
          "internalType": "uint256",
          "name": "",
          "type": "uint256"
        }
      ],
      "name": "userExist",
      "outputs": [
        {
          "internalType": "bool",
          "name": "",
          "type": "bool"
        }
      ],
      "stateMutability": "view",
      "type": "function"
    },
    {
      "inputs": [
        {
          "internalType": "string",
          "name": "",
          "type": "string"
        }
      ],
      "name": "userUserNameExist",
      "outputs": [
        {
          "internalType": "bool",
          "name": "",
          "type": "bool"
        }
      ],
      "stateMutability": "view",
      "type": "function"
    },
    {
      "inputs": [
        {
          "internalType": "string",
          "name": "",
          "type": "string"
        }
      ],
      "name": "userUserNameToId",
      "outputs": [
        {
          "internalType": "uint256",
          "name": "",
          "type": "uint256"
        }
      ],
      "stateMutability": "view",
      "type": "function"
    }
  ],
  "bytecode": "0x608060405234801561001057600080fd5b5061001a3361001f565b61006f565b600080546001600160a01b038381166001600160a01b0319831681178455604051919092169283917f8be0079c531659141344cd1fd0a4f28419497f9722a3daafe3b4186f6b6457e09190a35050565b612d45806200007f6000396000f3fe608060405234801561001057600080fd5b50600436106101cf5760003560e01c80638063e1cf11610104578063b0467deb116100a2578063d547741f11610071578063d547741f1461045a578063e26bdd4c1461046d578063f2fde38b14610498578063f8749a58146104ab57600080fd5b8063b0467deb146103f3578063bdcf5b8e14610406578063be6c898714610419578063c3cbb4961461042c57600080fd5b806391d14854116100de57806391d1485414610397578063975a584a146103aa578063a217fddf146103bd578063a90cd9f9146103c557600080fd5b80638063e1cf146103485780638da5cb5b146103735780638e62a5531461038e57600080fd5b8063404aa8f9116101715780636d1884e01161014b5780636d1884e0146102da578063715018a6146102fa57806371b0037f146103025780637f8b954c1461032557600080fd5b8063404aa8f91461029e57806351db2e76146102a657806359ae069b146102b957600080fd5b80632f2ff15d116101ad5780632f2ff15d1461024e5780633548124b1461026357806336568abe146102785780633c58f9701461028b57600080fd5b806301ffc9a7146101d457806318046ae1146101fc578063248a9ca31461021c575b600080fd5b6101e76101e2366004612364565b6104be565b60405190151581526020015b60405180910390f35b61020f61020a366004612431565b6104f5565b6040516101f391906124be565b61024061022a36600461253b565b6000908152600160208190526040909120015490565b6040519081526020016101f3565b61026161025c366004612570565b610798565b005b61026b6107c3565b6040516101f39190612680565b610261610286366004612570565b610be3565b6102616102993660046126e2565b610c61565b61026b610e82565b6102616102b436600461253b565b611298565b6102cc6102c73660046127a1565b6112fa565b6040516101f3929190612829565b6102ed6102e836600461253b565b6115f0565b6040516101f39190612844565b6102616118c9565b6101e761031036600461253b565b60086020526000908152604090205460ff1681565b6101e761033336600461253b565b600c6020526000908152604090205460ff1681565b610240610356366004612431565b805160208183018101805160078252928201919093012091525481565b6000546040516001600160a01b0390911681526020016101f3565b61024060045481565b6101e76103a5366004612570565b6118dd565b6102616103b8366004612857565b611908565b610240600081565b6101e76103d3366004612431565b8051602081830181018051600a8252928201919093012091525460ff1681565b61020f61040136600461253b565b611a54565b6102616104143660046128e9565b611aa6565b61020f610427366004612431565b611d8a565b6101e761043a366004612431565b805160208183018101805160098252928201919093012091525460ff1681565b610261610468366004612570565b611e06565b61024061047b366004612431565b805160208183018101805160068252928201919093012091525481565b6102616104a636600461299e565b611e2c565b6102616104b936600461253b565b611ea5565b60006001600160e01b03198216637965db0b60e01b14806104ef57506301ffc9a760e01b6001600160e01b03198316145b92915050565b6104fd6122be565b60008251116105275760405162461bcd60e51b815260040161051e906129b9565b60405180910390fd5b600a8260405161053791906129e8565b9081526040519081900360200190205460ff166105665760405162461bcd60e51b815260040161051e90612a04565b6005600060068460405161057a91906129e8565b90815260200160405180910390205481526020019081526020016000206040518060a0016040529081600082015481526020016001820160009054906101000a90046001600160a01b03166001600160a01b03166001600160a01b031681526020016002820180546105eb90612a2c565b80601f016020809104026020016040519081016040528092919081815260200182805461061790612a2c565b80156106645780601f1061063957610100808354040283529160200191610664565b820191906000526020600020905b81548152906001019060200180831161064757829003601f168201915b5050505050815260200160038201805461067d90612a2c565b80601f01602080910402602001604051908101604052809291908181526020018280546106a990612a2c565b80156106f65780601f106106cb576101008083540402835291602001916106f6565b820191906000526020600020905b8154815290600101906020018083116106d957829003601f168201915b5050505050815260200160048201805461070f90612a2c565b80601f016020809104026020016040519081016040528092919081815260200182805461073b90612a2c565b80156107885780601f1061075d57610100808354040283529160200191610788565b820191906000526020600020905b81548152906001019060200180831161076b57829003601f168201915b5050505050815250509050919050565b600082815260016020819052604090912001546107b481611f2a565b6107be8383611f34565b505050565b6060600060015b6002548111610833576000818152600b60205260409020600a015460ff1615801561080e57506000818152600b60205260409020600101546001600160a01b031633145b15610821578161081d81612a7c565b9250505b8061082b81612a7c565b9150506107ca565b508067ffffffffffffffff81111561084d5761084d61238e565b60405190808252806020026020018201604052801561088657816020015b6108736122f6565b81526020019060019003908161086b5790505b509150600060015b6002548111610bdd576000818152600b60205260409020600a015460ff161580156108d257506000818152600b60205260409020600101546001600160a01b031633145b15610bcb576000818152600b60209081526040918290208251610180810184528154815260018201546001600160a01b031692810192909252600281018054929391929184019161092290612a2c565b80601f016020809104026020016040519081016040528092919081815260200182805461094e90612a2c565b801561099b5780601f106109705761010080835404028352916020019161099b565b820191906000526020600020905b81548152906001019060200180831161097e57829003601f168201915b505050505081526020016003820180546109b490612a2c565b80601f01602080910402602001604051908101604052809291908181526020018280546109e090612a2c565b8015610a2d5780601f10610a0257610100808354040283529160200191610a2d565b820191906000526020600020905b815481529060010190602001808311610a1057829003601f168201915b50505050508152602001600482018054610a4690612a2c565b80601f0160208091040260200160405190810160405280929190818152602001828054610a7290612a2c565b8015610abf5780601f10610a9457610100808354040283529160200191610abf565b820191906000526020600020905b815481529060010190602001808311610aa257829003601f168201915b50505050508152602001600582018054610ad890612a2c565b80601f0160208091040260200160405190810160405280929190818152602001828054610b0490612a2c565b8015610b515780601f10610b2657610100808354040283529160200191610b51565b820191906000526020600020905b815481529060010190602001808311610b3457829003601f168201915b505050918352505060068201546020820152600782015460408201526008820154606082015260098201546080820152600a9091015460ff808216151560a084015261010090910416151560c0909101528483610bad81612a7c565b945081518110610bbf57610bbf612a95565b60200260200101819052505b80610bd581612a7c565b91505061088e565b50505090565b6001600160a01b0381163314610c535760405162461bcd60e51b815260206004820152602f60248201527f416363657373436f6e74726f6c3a2063616e206f6e6c792072656e6f756e636560448201526e103937b632b9903337b91039b2b63360891b606482015260840161051e565b610c5d8282611f9f565b5050565b6000868152600c602052604090205460ff16610c8f5760405162461bcd60e51b815260040161051e90612aab565b6000868152600b60205260409020600101546001600160a01b03163314610cc85760405162461bcd60e51b815260040161051e90612ad4565b6000855111610d105760405162461bcd60e51b81526020600482015260146024820152734e616d652063616e6e6f7420626520656d70747960601b604482015260640161051e565b6000845111610d615760405162461bcd60e51b815260206004820152601b60248201527f4465736372697074696f6e2063616e6e6f7420626520656d7074790000000000604482015260640161051e565b6000835111610daa5760405162461bcd60e51b8152602060048201526015602482015274496d6167652063616e6e6f7420626520656d70747960581b604482015260640161051e565b6000825111610df65760405162461bcd60e51b81526020600482015260186024820152774c6f636174696f6e2063616e6e6f7420626520656d70747960401b604482015260640161051e565b6000868152600b60205260409020600201610e118682612b4f565b506000868152600b60205260409020600301610e2d8582612b4f565b506000868152600b60205260409020600401610e498482612b4f565b506000868152600b60205260409020600501610e658382612b4f565b506000958652600b60205260409095206006019490945550505050565b6060600060015b6002548111610ef0576000818152600b60205260409020600a015460ff16158015610ecb57506000818152600b60205260409020600a0154610100900460ff16155b15610ede5781610eda81612a7c565b9250505b80610ee881612a7c565b915050610e89565b508067ffffffffffffffff811115610f0a57610f0a61238e565b604051908082528060200260200182016040528015610f4357816020015b610f306122f6565b815260200190600190039081610f285790505b509150600060015b6002548111610bdd576000818152600b60205260409020600a015460ff16158015610f8d57506000818152600b60205260409020600a0154610100900460ff16155b15611286576000818152600b60209081526040918290208251610180810184528154815260018201546001600160a01b0316928101929092526002810180549293919291840191610fdd90612a2c565b80601f016020809104026020016040519081016040528092919081815260200182805461100990612a2c565b80156110565780601f1061102b57610100808354040283529160200191611056565b820191906000526020600020905b81548152906001019060200180831161103957829003601f168201915b5050505050815260200160038201805461106f90612a2c565b80601f016020809104026020016040519081016040528092919081815260200182805461109b90612a2c565b80156110e85780601f106110bd576101008083540402835291602001916110e8565b820191906000526020600020905b8154815290600101906020018083116110cb57829003601f168201915b5050505050815260200160048201805461110190612a2c565b80601f016020809104026020016040519081016040528092919081815260200182805461112d90612a2c565b801561117a5780601f1061114f5761010080835404028352916020019161117a565b820191906000526020600020905b81548152906001019060200180831161115d57829003601f168201915b5050505050815260200160058201805461119390612a2c565b80601f01602080910402602001604051908101604052809291908181526020018280546111bf90612a2c565b801561120c5780601f106111e15761010080835404028352916020019161120c565b820191906000526020600020905b8154815290600101906020018083116111ef57829003601f168201915b505050918352505060068201546020820152600782015460408201526008820154606082015260098201546080820152600a9091015460ff808216151560a084015261010090910416151560c090910152848361126881612a7c565b94508151811061127a5761127a612a95565b60200260200101819052505b8061129081612a7c565b915050610f4b565b6112a0612006565b6000818152600c602052604090205460ff166112ce5760405162461bcd60e51b815260040161051e90612aab565b6000908152600b60205260409020600a01805461ff001981166101009182900460ff1615909102179055565b60006060600085511161131f5760405162461bcd60e51b815260040161051e90612c0f565b60008451116113405760405162461bcd60e51b815260040161051e906129b9565b60008351116113895760405162461bcd60e51b815260206004820152601560248201527450686f6e652063616e6e6f7420626520656d70747960581b604482015260640161051e565b600a8460405161139991906129e8565b9081526040519081900360200190205460ff161515600114806113e057506009856040516113c791906129e8565b9081526040519081900360200190205460ff1615156001145b1561141a575050604080518082019091526014815273456d61696c20616c72656164792065786973747360601b60208201526000906115e8565b611428600380546001019055565b6114306122be565b60035480825233602080840191825260408085018a8152606086018a905260808601899052600094855260059092529092208351815590516001820180546001600160a01b0319166001600160a01b039092169190911790559051829190600282019061149d9082612b4f565b50606082015160038201906114b29082612b4f565b50608082015160048201906114c79082612b4f565b509050508060000151600682606001516040516114e491906129e8565b908152604080519182900360200182209290925582519183015160079161150b91906129e8565b90815260408051602092819003830181209390935583516000908152600890925290208054600160ff19909116811790915560608301519091600a91611550916129e8565b90815260408051918290036020018220805493151560ff199094169390931790925590820151600191600991611585916129e8565b908152602001604051809103902060006101000a81548160ff02191690831515021790555060016040518060400160405280601b81526020017f4163636f75742063726561746564207375636365737366756c6c79000000000081525092509250505b935093915050565b6115f86122f6565b6000828152600b60209081526040918290208251610180810184528154815260018201546001600160a01b031692810192909252600281018054929391929184019161164390612a2c565b80601f016020809104026020016040519081016040528092919081815260200182805461166f90612a2c565b80156116bc5780601f10611691576101008083540402835291602001916116bc565b820191906000526020600020905b81548152906001019060200180831161169f57829003601f168201915b505050505081526020016003820180546116d590612a2c565b80601f016020809104026020016040519081016040528092919081815260200182805461170190612a2c565b801561174e5780601f106117235761010080835404028352916020019161174e565b820191906000526020600020905b81548152906001019060200180831161173157829003601f168201915b5050505050815260200160048201805461176790612a2c565b80601f016020809104026020016040519081016040528092919081815260200182805461179390612a2c565b80156117e05780601f106117b5576101008083540402835291602001916117e0565b820191906000526020600020905b8154815290600101906020018083116117c357829003601f168201915b505050505081526020016005820180546117f990612a2c565b80601f016020809104026020016040519081016040528092919081815260200182805461182590612a2c565b80156118725780601f1061184757610100808354040283529160200191611872565b820191906000526020600020905b81548152906001019060200180831161185557829003601f168201915b505050918352505060068201546020820152600782015460408201526008820154606082015260098201546080820152600a9091015460ff808216151560a084015261010090910416151560c09091015292915050565b6118d1612006565b6118db6000612060565b565b60009182526001602090815260408084206001600160a01b0393909316845291905290205460ff1690565b60008481526008602052604090205460ff166119365760405162461bcd60e51b815260040161051e90612a04565b6000848152600560205260409020600101546001600160a01b0316331461196f5760405162461bcd60e51b815260040161051e90612ad4565b60008351116119905760405162461bcd60e51b815260040161051e90612c0f565b60008251116119b15760405162461bcd60e51b815260040161051e906129b9565b60008151116119fa5760405162461bcd60e51b815260206004820152601560248201527450686f6e652063616e6e6f7420626520656d70747960581b604482015260640161051e565b6000848152600560205260409020600201611a158482612b4f565b506000848152600560205260409020600301611a318382612b4f565b506000848152600560205260409020600401611a4d8282612b4f565b5050505050565b611a5c6122be565b600082815260056020908152604091829020825160a0810184528154815260018201546001600160a01b03169281019290925260028101805492939192918401916105eb90612a2c565b6000855111611aee5760405162461bcd60e51b81526020600482015260146024820152734e616d652063616e6e6f7420626520656d70747960601b604482015260640161051e565b6000845111611b3f5760405162461bcd60e51b815260206004820152601b60248201527f4465736372697074696f6e2063616e6e6f7420626520656d7074790000000000604482015260640161051e565b6000835111611b885760405162461bcd60e51b8152602060048201526015602482015274496d6167652063616e6e6f7420626520656d70747960581b604482015260640161051e565b6000825111611bd45760405162461bcd60e51b81526020600482015260186024820152774c6f636174696f6e2063616e6e6f7420626520656d70747960401b604482015260640161051e565b60008111611c1c5760405162461bcd60e51b8152602060048201526015602482015274416d6f756e742063616e6e6f74206265207a65726f60581b604482015260640161051e565b611c2a600280546001019055565b611c326122f6565b60025480825233602080840191825260408085018a8152606086018a90526080860189905260a0860188905260c086018790526000610100870181905260e08701819052610140870181905260016101608801819052958152600b909352912084518155915192820180546001600160a01b0319166001600160a01b039094169390931790925590518291906002820190611ccd9082612b4f565b5060608201516003820190611ce29082612b4f565b5060808201516004820190611cf79082612b4f565b5060a08201516005820190611d0c9082612b4f565b5060c0820151600682015560e082015160078201556101008083015160088301556101208301516009830155610140830151600a90920180546101609094015161ffff1990941692151561ff0019169290921792151502919091179055516000908152600c60205260409020805460ff191660011790555050505050565b611d926122be565b6000825111611db35760405162461bcd60e51b815260040161051e90612c0f565b600982604051611dc391906129e8565b9081526040519081900360200190205460ff16611df25760405162461bcd60e51b815260040161051e90612a04565b6005600060078460405161057a91906129e8565b60008281526001602081905260409091200154611e2281611f2a565b6107be8383611f9f565b611e34612006565b6001600160a01b038116611e995760405162461bcd60e51b815260206004820152602660248201527f4f776e61626c653a206e6577206f776e657220697320746865207a65726f206160448201526564647265737360d01b606482015260840161051e565b611ea281612060565b50565b6000818152600c602052604090205460ff16611ed35760405162461bcd60e51b815260040161051e90612aab565b6000818152600b60205260409020600101546001600160a01b03163314611f0c5760405162461bcd60e51b815260040161051e90612ad4565b6000908152600b60205260409020600a01805460ff19166001179055565b611ea281336120b0565b611f3e82826118dd565b610c5d5760008281526001602081815260408084206001600160a01b0386168086529252808420805460ff19169093179092559051339285917f2f8788117e7eff1d82e926ec794901d17c78024a50270940304540a733656f0d9190a45050565b611fa982826118dd565b15610c5d5760008281526001602090815260408083206001600160a01b0385168085529252808320805460ff1916905551339285917ff6391f5c32d9c69d2a47ea670b442974b53935d1edc7fd64eb21e047a839171b9190a45050565b6000546001600160a01b031633146118db5760405162461bcd60e51b815260206004820181905260248201527f4f776e61626c653a2063616c6c6572206973206e6f7420746865206f776e6572604482015260640161051e565b600080546001600160a01b038381166001600160a01b0319831681178455604051919092169283917f8be0079c531659141344cd1fd0a4f28419497f9722a3daafe3b4186f6b6457e09190a35050565b6120ba82826118dd565b610c5d576120c781612109565b6120d283602061211b565b6040516020016120e3929190612c46565b60408051601f198184030181529082905262461bcd60e51b825261051e91600401612cbb565b60606104ef6001600160a01b03831660145b6060600061212a836002612cce565b612135906002612ce5565b67ffffffffffffffff81111561214d5761214d61238e565b6040519080825280601f01601f191660200182016040528015612177576020820181803683370190505b509050600360fc1b8160008151811061219257612192612a95565b60200101906001600160f81b031916908160001a905350600f60fb1b816001815181106121c1576121c1612a95565b60200101906001600160f81b031916908160001a90535060006121e5846002612cce565b6121f0906001612ce5565b90505b6001811115612268576f181899199a1a9b1b9c1cb0b131b232b360811b85600f166010811061222457612224612a95565b1a60f81b82828151811061223a5761223a612a95565b60200101906001600160f81b031916908160001a90535060049490941c9361226181612cf8565b90506121f3565b5083156122b75760405162461bcd60e51b815260206004820181905260248201527f537472696e67733a20686578206c656e67746820696e73756666696369656e74604482015260640161051e565b9392505050565b6040518060a001604052806000815260200160006001600160a01b031681526020016060815260200160608152602001606081525090565b6040518061018001604052806000815260200160006001600160a01b0316815260200160608152602001606081526020016060815260200160608152602001600081526020016000815260200160008152602001600081526020016000151581526020016000151581525090565b60006020828403121561237657600080fd5b81356001600160e01b0319811681146122b757600080fd5b634e487b7160e01b600052604160045260246000fd5b600082601f8301126123b557600080fd5b813567ffffffffffffffff808211156123d0576123d061238e565b604051601f8301601f19908116603f011681019082821181831017156123f8576123f861238e565b8160405283815286602085880101111561241157600080fd5b836020870160208301376000602085830101528094505050505092915050565b60006020828403121561244357600080fd5b813567ffffffffffffffff81111561245a57600080fd5b612466848285016123a4565b949350505050565b60005b83811015612489578181015183820152602001612471565b50506000910152565b600081518084526124aa81602086016020860161246e565b601f01601f19169290920160200192915050565b602081528151602082015260018060a01b0360208301511660408201526000604083015160a060608401526124f660c0840182612492565b90506060840151601f19808584030160808601526125148383612492565b925060808601519150808584030160a0860152506125328282612492565b95945050505050565b60006020828403121561254d57600080fd5b5035919050565b80356001600160a01b038116811461256b57600080fd5b919050565b6000806040838503121561258357600080fd5b8235915061259360208401612554565b90509250929050565b60006101808251845260208301516125bf60208601826001600160a01b03169052565b5060408301518160408601526125d782860182612492565b915050606083015184820360608601526125f18282612492565b9150506080830151848203608086015261260b8282612492565b91505060a083015184820360a08601526126258282612492565b91505060c083015160c085015260e083015160e0850152610100808401518186015250610120808401518186015250610140808401516126688287018215159052565b50506101609283015115159390920192909252919050565b6000602080830181845280855180835260408601915060408160051b870101925083870160005b828110156126d557603f198886030184526126c385835161259c565b945092850192908501906001016126a7565b5092979650505050505050565b60008060008060008060c087890312156126fb57600080fd5b86359550602087013567ffffffffffffffff8082111561271a57600080fd5b6127268a838b016123a4565b9650604089013591508082111561273c57600080fd5b6127488a838b016123a4565b9550606089013591508082111561275e57600080fd5b61276a8a838b016123a4565b9450608089013591508082111561278057600080fd5b5061278d89828a016123a4565b92505060a087013590509295509295509295565b6000806000606084860312156127b657600080fd5b833567ffffffffffffffff808211156127ce57600080fd5b6127da878388016123a4565b945060208601359150808211156127f057600080fd5b6127fc878388016123a4565b9350604086013591508082111561281257600080fd5b5061281f868287016123a4565b9150509250925092565b82151581526040602082015260006124666040830184612492565b6020815260006122b7602083018461259c565b6000806000806080858703121561286d57600080fd5b84359350602085013567ffffffffffffffff8082111561288c57600080fd5b612898888389016123a4565b945060408701359150808211156128ae57600080fd5b6128ba888389016123a4565b935060608701359150808211156128d057600080fd5b506128dd878288016123a4565b91505092959194509250565b600080600080600060a0868803121561290157600080fd5b853567ffffffffffffffff8082111561291957600080fd5b61292589838a016123a4565b9650602088013591508082111561293b57600080fd5b61294789838a016123a4565b9550604088013591508082111561295d57600080fd5b61296989838a016123a4565b9450606088013591508082111561297f57600080fd5b5061298c888289016123a4565b95989497509295608001359392505050565b6000602082840312156129b057600080fd5b6122b782612554565b602080825260159082015274456d61696c2063616e6e6f7420626520656d70747960581b604082015260600190565b600082516129fa81846020870161246e565b9190910192915050565b6020808252600e908201526d155cd95c88139bdd08119bdd5b9960921b604082015260600190565b600181811c90821680612a4057607f821691505b602082108103612a6057634e487b7160e01b600052602260045260246000fd5b50919050565b634e487b7160e01b600052601160045260246000fd5b600060018201612a8e57612a8e612a66565b5060010190565b634e487b7160e01b600052603260045260246000fd5b6020808252600f908201526e115d995b9d08139bdd08119bdd5b99608a1b604082015260600190565b602080825260139082015272556e617574686f72697a656420456e7469747960681b604082015260600190565b601f8211156107be57600081815260208120601f850160051c81016020861015612b285750805b601f850160051c820191505b81811015612b4757828155600101612b34565b505050505050565b815167ffffffffffffffff811115612b6957612b6961238e565b612b7d81612b778454612a2c565b84612b01565b602080601f831160018114612bb25760008415612b9a5750858301515b600019600386901b1c1916600185901b178555612b47565b600085815260208120601f198616915b82811015612be157888601518255948401946001909101908401612bc2565b5085821015612bff5787850151600019600388901b60f8161c191681555b5050505050600190811b01905550565b60208082526019908201527f55736572204e616d652063616e6e6f7420626520656d70747900000000000000604082015260600190565b7f416363657373436f6e74726f6c3a206163636f756e7420000000000000000000815260008351612c7e81601785016020880161246e565b7001034b99036b4b9b9b4b733903937b6329607d1b6017918401918201528351612caf81602884016020880161246e565b01602801949350505050565b6020815260006122b76020830184612492565b80820281158282048414176104ef576104ef612a66565b808201808211156104ef576104ef612a66565b600081612d0757612d07612a66565b50600019019056fea26469706673582212206f3df186f1691f996f30c3226674af8b5c3d6f3d2e47f3697de3a931d5d259db64736f6c63430008130033",
  "linkReferences": {},
  "deployedLinkReferences": {}
}