{
  "_format": "hh-sol-artifact-1",
  "contractName": "CityBeat",
  "sourceName": "contracts/CityBeat.sol",
  "abi": [
    {
      "inputs": [],
      "stateMutability": "nonpayable",
      "type": "constructor"
    },
    {
      "anonymous": false,
      "inputs": [
        {
          "indexed": true,
          "internalType": "address",
          "name": "previousOwner",
          "type": "address"
        },
        {
          "indexed": true,
          "internalType": "address",
          "name": "newOwner",
          "type": "address"
        }
      ],
      "name": "OwnershipTransferred",
      "type": "event"
    },
    {
      "anonymous": false,
      "inputs": [
        {
          "indexed": true,
          "internalType": "bytes32",
          "name": "role",
          "type": "bytes32"
        },
        {
          "indexed": true,
          "internalType": "bytes32",
          "name": "previousAdminRole",
          "type": "bytes32"
        },
        {
          "indexed": true,
          "internalType": "bytes32",
          "name": "newAdminRole",
          "type": "bytes32"
        }
      ],
      "name": "RoleAdminChanged",
      "type": "event"
    },
    {
      "anonymous": false,
      "inputs": [
        {
          "indexed": true,
          "internalType": "bytes32",
          "name": "role",
          "type": "bytes32"
        },
        {
          "indexed": true,
          "internalType": "address",
          "name": "account",
          "type": "address"
        },
        {
          "indexed": true,
          "internalType": "address",
          "name": "sender",
          "type": "address"
        }
      ],
      "name": "RoleGranted",
      "type": "event"
    },
    {
      "anonymous": false,
      "inputs": [
        {
          "indexed": true,
          "internalType": "bytes32",
          "name": "role",
          "type": "bytes32"
        },
        {
          "indexed": true,
          "internalType": "address",
          "name": "account",
          "type": "address"
        },
        {
          "indexed": true,
          "internalType": "address",
          "name": "sender",
          "type": "address"
        }
      ],
      "name": "RoleRevoked",
      "type": "event"
    },
    {
      "inputs": [],
      "name": "DEFAULT_ADMIN_ROLE",
      "outputs": [
        {
          "internalType": "bytes32",
          "name": "",
          "type": "bytes32"
        }
      ],
      "stateMutability": "view",
      "type": "function"
    },
    {
      "inputs": [],
      "name": "citybeat",
      "outputs": [
        {
          "internalType": "uint256",
          "name": "",
          "type": "uint256"
        }
      ],
      "stateMutability": "view",
      "type": "function"
    },
    {
      "inputs": [
        {
          "internalType": "string",
          "name": "name",
          "type": "string"
        },
        {
          "internalType": "string",
          "name": "description",
          "type": "string"
        },
        {
          "internalType": "string",
          "name": "image",
          "type": "string"
        },
        {
          "internalType": "string",
          "name": "location",
          "type": "string"
        },
        {
          "internalType": "uint256",
          "name": "amount",
          "type": "uint256"
        }
      ],
      "name": "createEvent",
      "outputs": [],
      "stateMutability": "nonpayable",
      "type": "function"
    },
    {
      "inputs": [
        {
          "internalType": "string",
          "name": "firstName",
          "type": "string"
        },
        {
          "internalType": "string",
          "name": "lastName",
          "type": "string"
        },
        {
          "internalType": "string",
          "name": "userName",
          "type": "string"
        },
        {
          "internalType": "string",
          "name": "email",
          "type": "string"
        },
        {
          "internalType": "string",
          "name": "password",
          "type": "string"
        },
        {
          "internalType": "string",
          "name": "phone",
          "type": "string"
        }
      ],
      "name": "createUser",
      "outputs": [
        {
          "internalType": "bool",
          "name": "",
          "type": "bool"
        },
        {
          "internalType": "string",
          "name": "",
          "type": "string"
        }
      ],
      "stateMutability": "nonpayable",
      "type": "function"
    },
    {
      "inputs": [
        {
          "internalType": "uint256",
          "name": "id",
          "type": "uint256"
        }
      ],
      "name": "deleteEvent",
      "outputs": [],
      "stateMutability": "nonpayable",
      "type": "function"
    },
    {
      "inputs": [
        {
          "internalType": "uint256",
          "name": "",
          "type": "uint256"
        }
      ],
      "name": "eventExist",
      "outputs": [
        {
          "internalType": "bool",
          "name": "",
          "type": "bool"
        }
      ],
      "stateMutability": "view",
      "type": "function"
    },
    {
      "inputs": [
        {
          "internalType": "uint256",
          "name": "id",
          "type": "uint256"
        }
      ],
      "name": "getEvent",
      "outputs": [
        {
          "components": [
            {
              "internalType": "uint256",
              "name": "id",
              "type": "uint256"
            },
            {
              "internalType": "address",
              "name": "owner",
              "type": "address"
            },
            {
              "internalType": "string",
              "name": "name",
              "type": "string"
            },
            {
              "internalType": "string",
              "name": "description",
              "type": "string"
            },
            {
              "internalType": "string",
              "name": "image",
              "type": "string"
            },
            {
              "internalType": "string",
              "name": "location",
              "type": "string"
            },
            {
              "internalType": "uint256",
              "name": "amount",
              "type": "uint256"
            },
            {
              "internalType": "uint256",
              "name": "donations",
              "type": "uint256"
            },
            {
              "internalType": "uint256",
              "name": "raised",
              "type": "uint256"
            },
            {
              "internalType": "uint256",
              "name": "timestamp",
              "type": "uint256"
            },
            {
              "internalType": "bool",
              "name": "deleted",
              "type": "bool"
            },
            {
              "internalType": "bool",
              "name": "isLive",
              "type": "bool"
            }
          ],
          "internalType": "struct CityBeat.EventStruct",
          "name": "",
          "type": "tuple"
        }
      ],
      "stateMutability": "view",
      "type": "function"
    },
    {
      "inputs": [],
      "name": "getEvents",
      "outputs": [
        {
          "components": [
            {
              "internalType": "uint256",
              "name": "id",
              "type": "uint256"
            },
            {
              "internalType": "address",
              "name": "owner",
              "type": "address"
            },
            {
              "internalType": "string",
              "name": "name",
              "type": "string"
            },
            {
              "internalType": "string",
              "name": "description",
              "type": "string"
            },
            {
              "internalType": "string",
              "name": "image",
              "type": "string"
            },
            {
              "internalType": "string",
              "name": "location",
              "type": "string"
            },
            {
              "internalType": "uint256",
              "name": "amount",
              "type": "uint256"
            },
            {
              "internalType": "uint256",
              "name": "donations",
              "type": "uint256"
            },
            {
              "internalType": "uint256",
              "name": "raised",
              "type": "uint256"
            },
            {
              "internalType": "uint256",
              "name": "timestamp",
              "type": "uint256"
            },
            {
              "internalType": "bool",
              "name": "deleted",
              "type": "bool"
            },
            {
              "internalType": "bool",
              "name": "isLive",
              "type": "bool"
            }
          ],
          "internalType": "struct CityBeat.EventStruct[]",
          "name": "Events",
          "type": "tuple[]"
        }
      ],
      "stateMutability": "view",
      "type": "function"
    },
    {
      "inputs": [],
      "name": "getMyEvents",
      "outputs": [
        {
          "components": [
            {
              "internalType": "uint256",
              "name": "id",
              "type": "uint256"
            },
            {
              "internalType": "address",
              "name": "owner",
              "type": "address"
            },
            {
              "internalType": "string",
              "name": "name",
              "type": "string"
            },
            {
              "internalType": "string",
              "name": "description",
              "type": "string"
            },
            {
              "internalType": "string",
              "name": "image",
              "type": "string"
            },
            {
              "internalType": "string",
              "name": "location",
              "type": "string"
            },
            {
              "internalType": "uint256",
              "name": "amount",
              "type": "uint256"
            },
            {
              "internalType": "uint256",
              "name": "donations",
              "type": "uint256"
            },
            {
              "internalType": "uint256",
              "name": "raised",
              "type": "uint256"
            },
            {
              "internalType": "uint256",
              "name": "timestamp",
              "type": "uint256"
            },
            {
              "internalType": "bool",
              "name": "deleted",
              "type": "bool"
            },
            {
              "internalType": "bool",
              "name": "isLive",
              "type": "bool"
            }
          ],
          "internalType": "struct CityBeat.EventStruct[]",
          "name": "Events",
          "type": "tuple[]"
        }
      ],
      "stateMutability": "view",
      "type": "function"
    },
    {
      "inputs": [
        {
          "internalType": "bytes32",
          "name": "role",
          "type": "bytes32"
        }
      ],
      "name": "getRoleAdmin",
      "outputs": [
        {
          "internalType": "bytes32",
          "name": "",
          "type": "bytes32"
        }
      ],
      "stateMutability": "view",
      "type": "function"
    },
    {
      "inputs": [
        {
          "internalType": "uint256",
          "name": "id",
          "type": "uint256"
        }
      ],
      "name": "getUser",
      "outputs": [
        {
          "components": [
            {
              "internalType": "uint256",
              "name": "id",
              "type": "uint256"
            },
            {
              "internalType": "address",
              "name": "owner",
              "type": "address"
            },
            {
              "internalType": "string",
              "name": "firstName",
              "type": "string"
            },
            {
              "internalType": "string",
              "name": "lastNme",
              "type": "string"
            },
            {
              "internalType": "string",
              "name": "userName",
              "type": "string"
            },
            {
              "internalType": "string",
              "name": "email",
              "type": "string"
            },
            {
              "internalType": "string",
              "name": "password",
              "type": "string"
            },
            {
              "internalType": "string",
              "name": "phone",
              "type": "string"
            }
          ],
          "internalType": "struct CityBeat.UserStruct",
          "name": "",
          "type": "tuple"
        }
      ],
      "stateMutability": "view",
      "type": "function"
    },
    {
      "inputs": [
        {
          "internalType": "string",
          "name": "email",
          "type": "string"
        }
      ],
      "name": "getUserByEmail",
      "outputs": [
        {
          "components": [
            {
              "internalType": "uint256",
              "name": "id",
              "type": "uint256"
            },
            {
              "internalType": "address",
              "name": "owner",
              "type": "address"
            },
            {
              "internalType": "string",
              "name": "firstName",
              "type": "string"
            },
            {
              "internalType": "string",
              "name": "lastNme",
              "type": "string"
            },
            {
              "internalType": "string",
              "name": "userName",
              "type": "string"
            },
            {
              "internalType": "string",
              "name": "email",
              "type": "string"
            },
            {
              "internalType": "string",
              "name": "password",
              "type": "string"
            },
            {
              "internalType": "string",
              "name": "phone",
              "type": "string"
            }
          ],
          "internalType": "struct CityBeat.UserStruct",
          "name": "",
          "type": "tuple"
        }
      ],
      "stateMutability": "view",
      "type": "function"
    },
    {
      "inputs": [
        {
          "internalType": "string",
          "name": "userName",
          "type": "string"
        }
      ],
      "name": "getUserByUserName",
      "outputs": [
        {
          "components": [
            {
              "internalType": "uint256",
              "name": "id",
              "type": "uint256"
            },
            {
              "internalType": "address",
              "name": "owner",
              "type": "address"
            },
            {
              "internalType": "string",
              "name": "firstName",
              "type": "string"
            },
            {
              "internalType": "string",
              "name": "lastNme",
              "type": "string"
            },
            {
              "internalType": "string",
              "name": "userName",
              "type": "string"
            },
            {
              "internalType": "string",
              "name": "email",
              "type": "string"
            },
            {
              "internalType": "string",
              "name": "password",
              "type": "string"
            },
            {
              "internalType": "string",
              "name": "phone",
              "type": "string"
            }
          ],
          "internalType": "struct CityBeat.UserStruct",
          "name": "",
          "type": "tuple"
        }
      ],
      "stateMutability": "view",
      "type": "function"
    },
    {
      "inputs": [
        {
          "internalType": "bytes32",
          "name": "role",
          "type": "bytes32"
        },
        {
          "internalType": "address",
          "name": "account",
          "type": "address"
        }
      ],
      "name": "grantRole",
      "outputs": [],
      "stateMutability": "nonpayable",
      "type": "function"
    },
    {
      "inputs": [
        {
          "internalType": "bytes32",
          "name": "role",
          "type": "bytes32"
        },
        {
          "internalType": "address",
          "name": "account",
          "type": "address"
        }
      ],
      "name": "hasRole",
      "outputs": [
        {
          "internalType": "bool",
          "name": "",
          "type": "bool"
        }
      ],
      "stateMutability": "view",
      "type": "function"
    },
    {
      "inputs": [],
      "name": "owner",
      "outputs": [
        {
          "internalType": "address",
          "name": "",
          "type": "address"
        }
      ],
      "stateMutability": "view",
      "type": "function"
    },
    {
      "inputs": [],
      "name": "renounceOwnership",
      "outputs": [],
      "stateMutability": "nonpayable",
      "type": "function"
    },
    {
      "inputs": [
        {
          "internalType": "bytes32",
          "name": "role",
          "type": "bytes32"
        },
        {
          "internalType": "address",
          "name": "account",
          "type": "address"
        }
      ],
      "name": "renounceRole",
      "outputs": [],
      "stateMutability": "nonpayable",
      "type": "function"
    },
    {
      "inputs": [
        {
          "internalType": "bytes32",
          "name": "role",
          "type": "bytes32"
        },
        {
          "internalType": "address",
          "name": "account",
          "type": "address"
        }
      ],
      "name": "revokeRole",
      "outputs": [],
      "stateMutability": "nonpayable",
      "type": "function"
    },
    {
      "inputs": [
        {
          "internalType": "bytes4",
          "name": "interfaceId",
          "type": "bytes4"
        }
      ],
      "name": "supportsInterface",
      "outputs": [
        {
          "internalType": "bool",
          "name": "",
          "type": "bool"
        }
      ],
      "stateMutability": "view",
      "type": "function"
    },
    {
      "inputs": [
        {
          "internalType": "uint256",
          "name": "id",
          "type": "uint256"
        }
      ],
      "name": "toggleStatus",
      "outputs": [],
      "stateMutability": "nonpayable",
      "type": "function"
    },
    {
      "inputs": [
        {
          "internalType": "address",
          "name": "newOwner",
          "type": "address"
        }
      ],
      "name": "transferOwnership",
      "outputs": [],
      "stateMutability": "nonpayable",
      "type": "function"
    },
    {
      "inputs": [
        {
          "internalType": "uint256",
          "name": "id",
          "type": "uint256"
        },
        {
          "internalType": "string",
          "name": "name",
          "type": "string"
        },
        {
          "internalType": "string",
          "name": "description",
          "type": "string"
        },
        {
          "internalType": "string",
          "name": "image",
          "type": "string"
        },
        {
          "internalType": "string",
          "name": "location",
          "type": "string"
        },
        {
          "internalType": "uint256",
          "name": "amount",
          "type": "uint256"
        }
      ],
      "name": "updateEvent",
      "outputs": [],
      "stateMutability": "nonpayable",
      "type": "function"
    },
    {
      "inputs": [
        {
          "internalType": "uint256",
          "name": "id",
          "type": "uint256"
        },
        {
          "internalType": "string",
          "name": "firstName",
          "type": "string"
        },
        {
          "internalType": "string",
          "name": "lastName",
          "type": "string"
        },
        {
          "internalType": "string",
          "name": "userName",
          "type": "string"
        },
        {
          "internalType": "string",
          "name": "email",
          "type": "string"
        },
        {
          "internalType": "string",
          "name": "password",
          "type": "string"
        },
        {
          "internalType": "string",
          "name": "phone",
          "type": "string"
        }
      ],
      "name": "updateUser",
      "outputs": [],
      "stateMutability": "nonpayable",
      "type": "function"
    },
    {
      "inputs": [
        {
          "internalType": "string",
          "name": "",
          "type": "string"
        }
      ],
      "name": "userEmailExist",
      "outputs": [
        {
          "internalType": "bool",
          "name": "",
          "type": "bool"
        }
      ],
      "stateMutability": "view",
      "type": "function"
    },
    {
      "inputs": [
        {
          "internalType": "string",
          "name": "",
          "type": "string"
        }
      ],
      "name": "userEmailToId",
      "outputs": [
        {
          "internalType": "uint256",
          "name": "",
          "type": "uint256"
        }
      ],
      "stateMutability": "view",
      "type": "function"
    },
    {
      "inputs": [
        {
          "internalType": "uint256",
          "name": "",
          "type": "uint256"
        }
      ],
      "name": "userExist",
      "outputs": [
        {
          "internalType": "bool",
          "name": "",
          "type": "bool"
        }
      ],
      "stateMutability": "view",
      "type": "function"
    },
    {
      "inputs": [
        {
          "internalType": "string",
          "name": "",
          "type": "string"
        }
      ],
      "name": "userUserNameExist",
      "outputs": [
        {
          "internalType": "bool",
          "name": "",
          "type": "bool"
        }
      ],
      "stateMutability": "view",
      "type": "function"
    },
    {
      "inputs": [
        {
          "internalType": "string",
          "name": "",
          "type": "string"
        }
      ],
      "name": "userUserNameToId",
      "outputs": [
        {
          "internalType": "uint256",
          "name": "",
          "type": "uint256"
        }
      ],
      "stateMutability": "view",
      "type": "function"
    }
  ],
  "bytecode": "0x60806040523480156200001157600080fd5b5062000032620000266200003860201b60201c565b6200004060201b60201c565b62000104565b600033905090565b60008060009054906101000a900473ffffffffffffffffffffffffffffffffffffffff169050816000806101000a81548173ffffffffffffffffffffffffffffffffffffffff021916908373ffffffffffffffffffffffffffffffffffffffff1602179055508173ffffffffffffffffffffffffffffffffffffffff168173ffffffffffffffffffffffffffffffffffffffff167f8be0079c531659141344cd1fd0a4f28419497f9722a3daafe3b4186f6b6457e060405160405180910390a35050565b61588880620001146000396000f3fe608060405234801561001057600080fd5b50600436106101cf5760003560e01c80637f8b954c11610104578063b0467deb116100a2578063d547741f11610071578063d547741f1461058d578063e26bdd4c146105a9578063f2fde38b146105d9578063f8749a58146105f5576101cf565b8063b0467deb146104e1578063bdcf5b8e14610511578063be6c89871461052d578063c3cbb4961461055d576101cf565b80638e62a553116100de5780638e62a5531461044557806391d1485414610463578063a217fddf14610493578063a90cd9f9146104b1576101cf565b80637f8b954c146103c75780638063e1cf146103f75780638da5cb5b14610427576101cf565b80633c58f9701161017157806351db2e761161014b57806351db2e76146103415780636d1884e01461035d578063715018a61461038d57806371b0037f14610397576101cf565b80633c58f970146102eb578063404aa8f9146103075780634d16155e14610325576101cf565b8063248a9ca3116101ad578063248a9ca3146102655780632f2ff15d146102955780633548124b146102b157806336568abe146102cf576101cf565b806301dadb2b146101d457806301ffc9a71461020557806318046ae114610235575b600080fd5b6101ee60048036038101906101e99190613e37565b610611565b6040516101fc929190614006565b60405180910390f35b61021f600480360381019061021a919061408e565b610b28565b60405161022c91906140bb565b60405180910390f35b61024f600480360381019061024a91906140d6565b610ba2565b60405161025c9190614296565b60405180910390f35b61027f600480360381019061027a91906142ee565b611069565b60405161028c919061432a565b60405180910390f35b6102af60048036038101906102aa9190614371565b611089565b005b6102b96110aa565b6040516102c6919061459b565b60405180910390f35b6102e960048036038101906102e49190614371565b6115ec565b005b610305600480360381019061030091906145e9565b61166f565b005b61030f611979565b60405161031c919061459b565b60405180910390f35b61033f600480360381019061033a91906146e6565b611e3b565b005b61035b60048036038101906103569190614830565b6121b8565b005b61037760048036038101906103729190614830565b612275565b6040516103849190614976565b60405180910390f35b6103956125a9565b005b6103b160048036038101906103ac9190614830565b6125bd565b6040516103be91906140bb565b60405180910390f35b6103e160048036038101906103dc9190614830565b6125dd565b6040516103ee91906140bb565b60405180910390f35b610411600480360381019061040c91906140d6565b6125fd565b60405161041e91906149a7565b60405180910390f35b61042f61262b565b60405161043c91906149d1565b60405180910390f35b61044d612654565b60405161045a91906149a7565b60405180910390f35b61047d60048036038101906104789190614371565b61265a565b60405161048a91906140bb565b60405180910390f35b61049b6126c5565b6040516104a8919061432a565b60405180910390f35b6104cb60048036038101906104c691906140d6565b6126cc565b6040516104d891906140bb565b60405180910390f35b6104fb60048036038101906104f69190614830565b612702565b6040516105089190614296565b60405180910390f35b61052b600480360381019061052691906149ec565b612afc565b005b610547600480360381019061054291906140d6565b612e66565b6040516105549190614296565b60405180910390f35b610577600480360381019061057291906140d6565b61332d565b60405161058491906140bb565b60405180910390f35b6105a760048036038101906105a29190614371565b613363565b005b6105c360048036038101906105be91906140d6565b613384565b6040516105d091906149a7565b60405180910390f35b6105f360048036038101906105ee9190614ad7565b6133b2565b005b61060f600480360381019061060a9190614830565b613435565b005b600060606000885111610659576040517f08c379a000000000000000000000000000000000000000000000000000000000815260040161065090614b50565b60405180910390fd5b600087511161069d576040517f08c379a000000000000000000000000000000000000000000000000000000000815260040161069490614bbc565b60405180910390fd5b60008651116106e1576040517f08c379a00000000000000000000000000000000000000000000000000000000081526004016106d890614c28565b60405180910390fd5b6000855111610725576040517f08c379a000000000000000000000000000000000000000000000000000000000815260040161071c90614c94565b60405180910390fd5b6000845111610769576040517f08c379a000000000000000000000000000000000000000000000000000000000815260040161076090614d00565b60405180910390fd5b60008351116107ad576040517f08c379a00000000000000000000000000000000000000000000000000000000081526004016107a490614d6c565b60405180910390fd5b60011515600a866040516107c19190614dc8565b908152602001604051809103902060009054906101000a900460ff161515148061081a5750600115156009876040516107fa9190614dc8565b908152602001604051809103902060009054906101000a900460ff161515145b156108605760006040518060400160405280601481526020017f456d61696c20616c72656164792065786973747300000000000000000000000081525091509150610b1d565b61086a600361356b565b610872613c07565b61087c6003613581565b81600001818152505033816020019073ffffffffffffffffffffffffffffffffffffffff16908173ffffffffffffffffffffffffffffffffffffffff1681525050888160400181905250878160600181905250868160800181905250858160a00181905250848160c00181905250838160e001819052508060056000836000015181526020019081526020016000206000820151816000015560208201518160010160006101000a81548173ffffffffffffffffffffffffffffffffffffffff021916908373ffffffffffffffffffffffffffffffffffffffff16021790555060408201518160020190816109719190614feb565b5060608201518160030190816109879190614feb565b50608082015181600401908161099d9190614feb565b5060a08201518160050190816109b39190614feb565b5060c08201518160060190816109c99190614feb565b5060e08201518160070190816109df9190614feb565b50905050806000015160068260a001516040516109fc9190614dc8565b908152602001604051809103902081905550806000015160078260800151604051610a279190614dc8565b9081526020016040518091039020819055506001600860008360000151815260200190815260200160002060006101000a81548160ff0219169083151502179055506001600a8260a00151604051610a7f9190614dc8565b908152602001604051809103902060006101000a81548160ff021916908315150217905550600160098260800151604051610aba9190614dc8565b908152602001604051809103902060006101000a81548160ff02191690831515021790555060016040518060400160405280601b81526020017f4163636f75742063726561746564207375636365737366756c6c79000000000081525092509250505b965096945050505050565b60007f7965db0b000000000000000000000000000000000000000000000000000000007bffffffffffffffffffffffffffffffffffffffffffffffffffffffff1916827bffffffffffffffffffffffffffffffffffffffffffffffffffffffff19161480610b9b5750610b9a8261358f565b5b9050919050565b610baa613c07565b6000825111610bee576040517f08c379a0000000000000000000000000000000000000000000000000000000008152600401610be590614c94565b60405180910390fd5b600a82604051610bfe9190614dc8565b908152602001604051809103902060009054906101000a900460ff16610c59576040517f08c379a0000000000000000000000000000000000000000000000000000000008152600401610c5090615109565b60405180910390fd5b60056000600684604051610c6d9190614dc8565b908152602001604051809103902054815260200190815260200160002060405180610100016040529081600082015481526020016001820160009054906101000a900473ffffffffffffffffffffffffffffffffffffffff1673ffffffffffffffffffffffffffffffffffffffff1673ffffffffffffffffffffffffffffffffffffffff168152602001600282018054610d0690614e0e565b80601f0160208091040260200160405190810160405280929190818152602001828054610d3290614e0e565b8015610d7f5780601f10610d5457610100808354040283529160200191610d7f565b820191906000526020600020905b815481529060010190602001808311610d6257829003601f168201915b50505050508152602001600382018054610d9890614e0e565b80601f0160208091040260200160405190810160405280929190818152602001828054610dc490614e0e565b8015610e115780601f10610de657610100808354040283529160200191610e11565b820191906000526020600020905b815481529060010190602001808311610df457829003601f168201915b50505050508152602001600482018054610e2a90614e0e565b80601f0160208091040260200160405190810160405280929190818152602001828054610e5690614e0e565b8015610ea35780601f10610e7857610100808354040283529160200191610ea3565b820191906000526020600020905b815481529060010190602001808311610e8657829003601f168201915b50505050508152602001600582018054610ebc90614e0e565b80601f0160208091040260200160405190810160405280929190818152602001828054610ee890614e0e565b8015610f355780601f10610f0a57610100808354040283529160200191610f35565b820191906000526020600020905b815481529060010190602001808311610f1857829003601f168201915b50505050508152602001600682018054610f4e90614e0e565b80601f0160208091040260200160405190810160405280929190818152602001828054610f7a90614e0e565b8015610fc75780601f10610f9c57610100808354040283529160200191610fc7565b820191906000526020600020905b815481529060010190602001808311610faa57829003601f168201915b50505050508152602001600782018054610fe090614e0e565b80601f016020809104026020016040519081016040528092919081815260200182805461100c90614e0e565b80156110595780601f1061102e57610100808354040283529160200191611059565b820191906000526020600020905b81548152906001019060200180831161103c57829003601f168201915b5050505050815250509050919050565b600060016000838152602001908152602001600020600101549050919050565b61109282611069565b61109b816135f9565b6110a5838361360d565b505050565b6060600080600190505b6110be6002613581565b811161117d57600b6000828152602001908152602001600020600a0160009054906101000a900460ff1615801561115657503373ffffffffffffffffffffffffffffffffffffffff16600b600083815260200190815260200160002060010160009054906101000a900473ffffffffffffffffffffffffffffffffffffffff1673ffffffffffffffffffffffffffffffffffffffff16145b1561116a57818061116690615158565b9250505b808061117590615158565b9150506110b4565b508067ffffffffffffffff81111561119857611197613d0c565b5b6040519080825280602002602001820160405280156111d157816020015b6111be613c62565b8152602001906001900390816111b65790505b509150600080600190505b6111e66002613581565b81116115e657600b6000828152602001908152602001600020600a0160009054906101000a900460ff1615801561127e57503373ffffffffffffffffffffffffffffffffffffffff16600b600083815260200190815260200160002060010160009054906101000a900473ffffffffffffffffffffffffffffffffffffffff1673ffffffffffffffffffffffffffffffffffffffff16145b156115d357600b600082815260200190815260200160002060405180610180016040529081600082015481526020016001820160009054906101000a900473ffffffffffffffffffffffffffffffffffffffff1673ffffffffffffffffffffffffffffffffffffffff1673ffffffffffffffffffffffffffffffffffffffff16815260200160028201805461131290614e0e565b80601f016020809104026020016040519081016040528092919081815260200182805461133e90614e0e565b801561138b5780601f106113605761010080835404028352916020019161138b565b820191906000526020600020905b81548152906001019060200180831161136e57829003601f168201915b505050505081526020016003820180546113a490614e0e565b80601f01602080910402602001604051908101604052809291908181526020018280546113d090614e0e565b801561141d5780601f106113f25761010080835404028352916020019161141d565b820191906000526020600020905b81548152906001019060200180831161140057829003601f168201915b5050505050815260200160048201805461143690614e0e565b80601f016020809104026020016040519081016040528092919081815260200182805461146290614e0e565b80156114af5780601f10611484576101008083540402835291602001916114af565b820191906000526020600020905b81548152906001019060200180831161149257829003601f168201915b505050505081526020016005820180546114c890614e0e565b80601f01602080910402602001604051908101604052809291908181526020018280546114f490614e0e565b80156115415780601f1061151657610100808354040283529160200191611541565b820191906000526020600020905b81548152906001019060200180831161152457829003601f168201915b5050505050815260200160068201548152602001600782015481526020016008820154815260200160098201548152602001600a820160009054906101000a900460ff16151515158152602001600a820160019054906101000a900460ff1615151515815250508483806115b490615158565b9450815181106115c7576115c66151a0565b5b60200260200101819052505b80806115de90615158565b9150506111dc565b50505090565b6115f46136ed565b73ffffffffffffffffffffffffffffffffffffffff168173ffffffffffffffffffffffffffffffffffffffff1614611661576040517f08c379a000000000000000000000000000000000000000000000000000000000815260040161165890615241565b60405180910390fd5b61166b82826136f5565b5050565b600c600087815260200190815260200160002060009054906101000a900460ff166116cf576040517f08c379a00000000000000000000000000000000000000000000000000000000081526004016116c6906152ad565b60405180910390fd5b600b600087815260200190815260200160002060010160009054906101000a900473ffffffffffffffffffffffffffffffffffffffff1673ffffffffffffffffffffffffffffffffffffffff163373ffffffffffffffffffffffffffffffffffffffff1614611773576040517f08c379a000000000000000000000000000000000000000000000000000000000815260040161176a90615319565b60405180910390fd5b60008551116117b7576040517f08c379a00000000000000000000000000000000000000000000000000000000081526004016117ae90615385565b60405180910390fd5b60008451116117fb576040517f08c379a00000000000000000000000000000000000000000000000000000000081526004016117f2906153f1565b60405180910390fd5b600083511161183f576040517f08c379a00000000000000000000000000000000000000000000000000000000081526004016118369061545d565b60405180910390fd5b6000825111611883576040517f08c379a000000000000000000000000000000000000000000000000000000000815260040161187a906154c9565b60405180910390fd5b600081116118c6576040517f08c379a00000000000000000000000000000000000000000000000000000000081526004016118bd90615535565b60405180910390fd5b84600b600088815260200190815260200160002060020190816118e99190614feb565b5083600b6000888152602001908152602001600020600301908161190d9190614feb565b5082600b600088815260200190815260200160002060040190816119319190614feb565b5081600b600088815260200190815260200160002060050190816119559190614feb565b5080600b600088815260200190815260200160002060060181905550505050505050565b6060600080600190505b61198d6002613581565b8111611a0c57600b6000828152602001908152602001600020600a0160009054906101000a900460ff161580156119e55750600b6000828152602001908152602001600020600a0160019054906101000a900460ff16155b156119f95781806119f590615158565b9250505b8080611a0490615158565b915050611983565b508067ffffffffffffffff811115611a2757611a26613d0c565b5b604051908082528060200260200182016040528015611a6057816020015b611a4d613c62565b815260200190600190039081611a455790505b509150600080600190505b611a756002613581565b8111611e3557600b6000828152602001908152602001600020600a0160009054906101000a900460ff16158015611acd5750600b6000828152602001908152602001600020600a0160019054906101000a900460ff16155b15611e2257600b600082815260200190815260200160002060405180610180016040529081600082015481526020016001820160009054906101000a900473ffffffffffffffffffffffffffffffffffffffff1673ffffffffffffffffffffffffffffffffffffffff1673ffffffffffffffffffffffffffffffffffffffff168152602001600282018054611b6190614e0e565b80601f0160208091040260200160405190810160405280929190818152602001828054611b8d90614e0e565b8015611bda5780601f10611baf57610100808354040283529160200191611bda565b820191906000526020600020905b815481529060010190602001808311611bbd57829003601f168201915b50505050508152602001600382018054611bf390614e0e565b80601f0160208091040260200160405190810160405280929190818152602001828054611c1f90614e0e565b8015611c6c5780601f10611c4157610100808354040283529160200191611c6c565b820191906000526020600020905b815481529060010190602001808311611c4f57829003601f168201915b50505050508152602001600482018054611c8590614e0e565b80601f0160208091040260200160405190810160405280929190818152602001828054611cb190614e0e565b8015611cfe5780601f10611cd357610100808354040283529160200191611cfe565b820191906000526020600020905b815481529060010190602001808311611ce157829003601f168201915b50505050508152602001600582018054611d1790614e0e565b80601f0160208091040260200160405190810160405280929190818152602001828054611d4390614e0e565b8015611d905780601f10611d6557610100808354040283529160200191611d90565b820191906000526020600020905b815481529060010190602001808311611d7357829003601f168201915b5050505050815260200160068201548152602001600782015481526020016008820154815260200160098201548152602001600a820160009054906101000a900460ff16151515158152602001600a820160019054906101000a900460ff161515151581525050848380611e0390615158565b945081518110611e1657611e156151a0565b5b60200260200101819052505b8080611e2d90615158565b915050611a6b565b50505090565b6008600088815260200190815260200160002060009054906101000a900460ff16611e9b576040517f08c379a0000000000000000000000000000000000000000000000000000000008152600401611e9290615109565b60405180910390fd5b6005600088815260200190815260200160002060010160009054906101000a900473ffffffffffffffffffffffffffffffffffffffff1673ffffffffffffffffffffffffffffffffffffffff163373ffffffffffffffffffffffffffffffffffffffff1614611f3f576040517f08c379a0000000000000000000000000000000000000000000000000000000008152600401611f3690615319565b60405180910390fd5b6000865111611f83576040517f08c379a0000000000000000000000000000000000000000000000000000000008152600401611f7a90614b50565b60405180910390fd5b6000855111611fc7576040517f08c379a0000000000000000000000000000000000000000000000000000000008152600401611fbe90614bbc565b60405180910390fd5b600084511161200b576040517f08c379a000000000000000000000000000000000000000000000000000000000815260040161200290614c28565b60405180910390fd5b600083511161204f576040517f08c379a000000000000000000000000000000000000000000000000000000000815260040161204690614c94565b60405180910390fd5b6000825111612093576040517f08c379a000000000000000000000000000000000000000000000000000000000815260040161208a90614d00565b60405180910390fd5b60008151116120d7576040517f08c379a00000000000000000000000000000000000000000000000000000000081526004016120ce90614d6c565b60405180910390fd5b856005600089815260200190815260200160002060020190816120fa9190614feb565b508460056000898152602001908152602001600020600301908161211e9190614feb565b50836005600089815260200190815260200160002060040190816121429190614feb565b50826005600089815260200190815260200160002060050190816121669190614feb565b508160056000898152602001908152602001600020600601908161218a9190614feb565b50806005600089815260200190815260200160002060070190816121ae9190614feb565b5050505050505050565b6121c06137d7565b600c600082815260200190815260200160002060009054906101000a900460ff16612220576040517f08c379a0000000000000000000000000000000000000000000000000000000008152600401612217906152ad565b60405180910390fd5b600b6000828152602001908152602001600020600a0160019054906101000a900460ff1615600b6000838152602001908152602001600020600a0160016101000a81548160ff02191690831515021790555050565b61227d613c62565b600b600083815260200190815260200160002060405180610180016040529081600082015481526020016001820160009054906101000a900473ffffffffffffffffffffffffffffffffffffffff1673ffffffffffffffffffffffffffffffffffffffff1673ffffffffffffffffffffffffffffffffffffffff16815260200160028201805461230c90614e0e565b80601f016020809104026020016040519081016040528092919081815260200182805461233890614e0e565b80156123855780601f1061235a57610100808354040283529160200191612385565b820191906000526020600020905b81548152906001019060200180831161236857829003601f168201915b5050505050815260200160038201805461239e90614e0e565b80601f01602080910402602001604051908101604052809291908181526020018280546123ca90614e0e565b80156124175780601f106123ec57610100808354040283529160200191612417565b820191906000526020600020905b8154815290600101906020018083116123fa57829003601f168201915b5050505050815260200160048201805461243090614e0e565b80601f016020809104026020016040519081016040528092919081815260200182805461245c90614e0e565b80156124a95780601f1061247e576101008083540402835291602001916124a9565b820191906000526020600020905b81548152906001019060200180831161248c57829003601f168201915b505050505081526020016005820180546124c290614e0e565b80601f01602080910402602001604051908101604052809291908181526020018280546124ee90614e0e565b801561253b5780601f106125105761010080835404028352916020019161253b565b820191906000526020600020905b81548152906001019060200180831161251e57829003601f168201915b5050505050815260200160068201548152602001600782015481526020016008820154815260200160098201548152602001600a820160009054906101000a900460ff16151515158152602001600a820160019054906101000a900460ff1615151515815250509050919050565b6125b16137d7565b6125bb6000613855565b565b60086020528060005260406000206000915054906101000a900460ff1681565b600c6020528060005260406000206000915054906101000a900460ff1681565b6007818051602081018201805184825260208301602085012081835280955050505050506000915090505481565b60008060009054906101000a900473ffffffffffffffffffffffffffffffffffffffff16905090565b60045481565b60006001600084815260200190815260200160002060000160008373ffffffffffffffffffffffffffffffffffffffff1673ffffffffffffffffffffffffffffffffffffffff16815260200190815260200160002060009054906101000a900460ff16905092915050565b6000801b81565b600a818051602081018201805184825260208301602085012081835280955050505050506000915054906101000a900460ff1681565b61270a613c07565b6005600083815260200190815260200160002060405180610100016040529081600082015481526020016001820160009054906101000a900473ffffffffffffffffffffffffffffffffffffffff1673ffffffffffffffffffffffffffffffffffffffff1673ffffffffffffffffffffffffffffffffffffffff16815260200160028201805461279990614e0e565b80601f01602080910402602001604051908101604052809291908181526020018280546127c590614e0e565b80156128125780601f106127e757610100808354040283529160200191612812565b820191906000526020600020905b8154815290600101906020018083116127f557829003601f168201915b5050505050815260200160038201805461282b90614e0e565b80601f016020809104026020016040519081016040528092919081815260200182805461285790614e0e565b80156128a45780601f10612879576101008083540402835291602001916128a4565b820191906000526020600020905b81548152906001019060200180831161288757829003601f168201915b505050505081526020016004820180546128bd90614e0e565b80601f01602080910402602001604051908101604052809291908181526020018280546128e990614e0e565b80156129365780601f1061290b57610100808354040283529160200191612936565b820191906000526020600020905b81548152906001019060200180831161291957829003601f168201915b5050505050815260200160058201805461294f90614e0e565b80601f016020809104026020016040519081016040528092919081815260200182805461297b90614e0e565b80156129c85780601f1061299d576101008083540402835291602001916129c8565b820191906000526020600020905b8154815290600101906020018083116129ab57829003601f168201915b505050505081526020016006820180546129e190614e0e565b80601f0160208091040260200160405190810160405280929190818152602001828054612a0d90614e0e565b8015612a5a5780601f10612a2f57610100808354040283529160200191612a5a565b820191906000526020600020905b815481529060010190602001808311612a3d57829003601f168201915b50505050508152602001600782018054612a7390614e0e565b80601f0160208091040260200160405190810160405280929190818152602001828054612a9f90614e0e565b8015612aec5780601f10612ac157610100808354040283529160200191612aec565b820191906000526020600020905b815481529060010190602001808311612acf57829003601f168201915b5050505050815250509050919050565b6000855111612b40576040517f08c379a0000000000000000000000000000000000000000000000000000000008152600401612b3790615385565b60405180910390fd5b6000845111612b84576040517f08c379a0000000000000000000000000000000000000000000000000000000008152600401612b7b906153f1565b60405180910390fd5b6000835111612bc8576040517f08c379a0000000000000000000000000000000000000000000000000000000008152600401612bbf9061545d565b60405180910390fd5b6000825111612c0c576040517f08c379a0000000000000000000000000000000000000000000000000000000008152600401612c03906154c9565b60405180910390fd5b60008111612c4f576040517f08c379a0000000000000000000000000000000000000000000000000000000008152600401612c4690615535565b60405180910390fd5b612c59600261356b565b612c61613c62565b612c6b6002613581565b81600001818152505033816020019073ffffffffffffffffffffffffffffffffffffffff16908173ffffffffffffffffffffffffffffffffffffffff1681525050858160400181905250848160600181905250838160800181905250828160a00181905250818160c001818152505060008161014001901515908115158152505060018161016001901515908115158152505080600b6000836000015181526020019081526020016000206000820151816000015560208201518160010160006101000a81548173ffffffffffffffffffffffffffffffffffffffff021916908373ffffffffffffffffffffffffffffffffffffffff1602179055506040820151816002019081612d7c9190614feb565b506060820151816003019081612d929190614feb565b506080820151816004019081612da89190614feb565b5060a0820151816005019081612dbe9190614feb565b5060c0820151816006015560e082015181600701556101008201518160080155610120820151816009015561014082015181600a0160006101000a81548160ff02191690831515021790555061016082015181600a0160016101000a81548160ff0219169083151502179055509050506001600c60008360000151815260200190815260200160002060006101000a81548160ff021916908315150217905550505050505050565b612e6e613c07565b6000825111612eb2576040517f08c379a0000000000000000000000000000000000000000000000000000000008152600401612ea990614c28565b60405180910390fd5b600982604051612ec29190614dc8565b908152602001604051809103902060009054906101000a900460ff16612f1d576040517f08c379a0000000000000000000000000000000000000000000000000000000008152600401612f1490615109565b60405180910390fd5b60056000600784604051612f319190614dc8565b908152602001604051809103902054815260200190815260200160002060405180610100016040529081600082015481526020016001820160009054906101000a900473ffffffffffffffffffffffffffffffffffffffff1673ffffffffffffffffffffffffffffffffffffffff1673ffffffffffffffffffffffffffffffffffffffff168152602001600282018054612fca90614e0e565b80601f0160208091040260200160405190810160405280929190818152602001828054612ff690614e0e565b80156130435780601f1061301857610100808354040283529160200191613043565b820191906000526020600020905b81548152906001019060200180831161302657829003601f168201915b5050505050815260200160038201805461305c90614e0e565b80601f016020809104026020016040519081016040528092919081815260200182805461308890614e0e565b80156130d55780601f106130aa576101008083540402835291602001916130d5565b820191906000526020600020905b8154815290600101906020018083116130b857829003601f168201915b505050505081526020016004820180546130ee90614e0e565b80601f016020809104026020016040519081016040528092919081815260200182805461311a90614e0e565b80156131675780601f1061313c57610100808354040283529160200191613167565b820191906000526020600020905b81548152906001019060200180831161314a57829003601f168201915b5050505050815260200160058201805461318090614e0e565b80601f01602080910402602001604051908101604052809291908181526020018280546131ac90614e0e565b80156131f95780601f106131ce576101008083540402835291602001916131f9565b820191906000526020600020905b8154815290600101906020018083116131dc57829003601f168201915b5050505050815260200160068201805461321290614e0e565b80601f016020809104026020016040519081016040528092919081815260200182805461323e90614e0e565b801561328b5780601f106132605761010080835404028352916020019161328b565b820191906000526020600020905b81548152906001019060200180831161326e57829003601f168201915b505050505081526020016007820180546132a490614e0e565b80601f01602080910402602001604051908101604052809291908181526020018280546132d090614e0e565b801561331d5780601f106132f25761010080835404028352916020019161331d565b820191906000526020600020905b81548152906001019060200180831161330057829003601f168201915b5050505050815250509050919050565b6009818051602081018201805184825260208301602085012081835280955050505050506000915054906101000a900460ff1681565b61336c82611069565b613375816135f9565b61337f83836136f5565b505050565b6006818051602081018201805184825260208301602085012081835280955050505050506000915090505481565b6133ba6137d7565b600073ffffffffffffffffffffffffffffffffffffffff168173ffffffffffffffffffffffffffffffffffffffff1603613429576040517f08c379a0000000000000000000000000000000000000000000000000000000008152600401613420906155c7565b60405180910390fd5b61343281613855565b50565b600c600082815260200190815260200160002060009054906101000a900460ff16613495576040517f08c379a000000000000000000000000000000000000000000000000000000000815260040161348c906152ad565b60405180910390fd5b600b600082815260200190815260200160002060010160009054906101000a900473ffffffffffffffffffffffffffffffffffffffff1673ffffffffffffffffffffffffffffffffffffffff163373ffffffffffffffffffffffffffffffffffffffff1614613539576040517f08c379a000000000000000000000000000000000000000000000000000000000815260040161353090615319565b60405180910390fd5b6001600b6000838152602001908152602001600020600a0160006101000a81548160ff02191690831515021790555050565b6001816000016000828254019250508190555050565b600081600001549050919050565b60007f01ffc9a7000000000000000000000000000000000000000000000000000000007bffffffffffffffffffffffffffffffffffffffffffffffffffffffff1916827bffffffffffffffffffffffffffffffffffffffffffffffffffffffff1916149050919050565b61360a816136056136ed565b613919565b50565b613617828261265a565b6136e957600180600084815260200190815260200160002060000160008373ffffffffffffffffffffffffffffffffffffffff1673ffffffffffffffffffffffffffffffffffffffff16815260200190815260200160002060006101000a81548160ff02191690831515021790555061368e6136ed565b73ffffffffffffffffffffffffffffffffffffffff168173ffffffffffffffffffffffffffffffffffffffff16837f2f8788117e7eff1d82e926ec794901d17c78024a50270940304540a733656f0d60405160405180910390a45b5050565b600033905090565b6136ff828261265a565b156137d35760006001600084815260200190815260200160002060000160008373ffffffffffffffffffffffffffffffffffffffff1673ffffffffffffffffffffffffffffffffffffffff16815260200190815260200160002060006101000a81548160ff0219169083151502179055506137786136ed565b73ffffffffffffffffffffffffffffffffffffffff168173ffffffffffffffffffffffffffffffffffffffff16837ff6391f5c32d9c69d2a47ea670b442974b53935d1edc7fd64eb21e047a839171b60405160405180910390a45b5050565b6137df6136ed565b73ffffffffffffffffffffffffffffffffffffffff166137fd61262b565b73ffffffffffffffffffffffffffffffffffffffff1614613853576040517f08c379a000000000000000000000000000000000000000000000000000000000815260040161384a90615633565b60405180910390fd5b565b60008060009054906101000a900473ffffffffffffffffffffffffffffffffffffffff169050816000806101000a81548173ffffffffffffffffffffffffffffffffffffffff021916908373ffffffffffffffffffffffffffffffffffffffff1602179055508173ffffffffffffffffffffffffffffffffffffffff168173ffffffffffffffffffffffffffffffffffffffff167f8be0079c531659141344cd1fd0a4f28419497f9722a3daafe3b4186f6b6457e060405160405180910390a35050565b613923828261265a565b61399a576139308161399e565b61393e8360001c60206139cb565b60405160200161394f9291906156eb565b6040516020818303038152906040526040517f08c379a00000000000000000000000000000000000000000000000000000000081526004016139919190615725565b60405180910390fd5b5050565b60606139c48273ffffffffffffffffffffffffffffffffffffffff16601460ff166139cb565b9050919050565b6060600060028360026139de9190615747565b6139e89190615789565b67ffffffffffffffff811115613a0157613a00613d0c565b5b6040519080825280601f01601f191660200182016040528015613a335781602001600182028036833780820191505090505b5090507f300000000000000000000000000000000000000000000000000000000000000081600081518110613a6b57613a6a6151a0565b5b60200101907effffffffffffffffffffffffffffffffffffffffffffffffffffffffffffff1916908160001a9053507f780000000000000000000000000000000000000000000000000000000000000081600181518110613acf57613ace6151a0565b5b60200101907effffffffffffffffffffffffffffffffffffffffffffffffffffffffffffff1916908160001a90535060006001846002613b0f9190615747565b613b199190615789565b90505b6001811115613bb9577f3031323334353637383961626364656600000000000000000000000000000000600f861660108110613b5b57613b5a6151a0565b5b1a60f81b828281518110613b7257613b716151a0565b5b60200101907effffffffffffffffffffffffffffffffffffffffffffffffffffffffffffff1916908160001a905350600485901c945080613bb2906157bd565b9050613b1c565b5060008414613bfd576040517f08c379a0000000000000000000000000000000000000000000000000000000008152600401613bf490615832565b60405180910390fd5b8091505092915050565b60405180610100016040528060008152602001600073ffffffffffffffffffffffffffffffffffffffff1681526020016060815260200160608152602001606081526020016060815260200160608152602001606081525090565b60405180610180016040528060008152602001600073ffffffffffffffffffffffffffffffffffffffff16815260200160608152602001606081526020016060815260200160608152602001600081526020016000815260200160008152602001600081526020016000151581526020016000151581525090565b6000604051905090565b600080fd5b600080fd5b600080fd5b600080fd5b6000601f19601f8301169050919050565b7f4e487b7100000000000000000000000000000000000000000000000000000000600052604160045260246000fd5b613d4482613cfb565b810181811067ffffffffffffffff82111715613d6357613d62613d0c565b5b80604052505050565b6000613d76613cdd565b9050613d828282613d3b565b919050565b600067ffffffffffffffff821115613da257613da1613d0c565b5b613dab82613cfb565b9050602081019050919050565b82818337600083830152505050565b6000613dda613dd584613d87565b613d6c565b905082815260208101848484011115613df657613df5613cf6565b5b613e01848285613db8565b509392505050565b600082601f830112613e1e57613e1d613cf1565b5b8135613e2e848260208601613dc7565b91505092915050565b60008060008060008060c08789031215613e5457613e53613ce7565b5b600087013567ffffffffffffffff811115613e7257613e71613cec565b5b613e7e89828a01613e09565b965050602087013567ffffffffffffffff811115613e9f57613e9e613cec565b5b613eab89828a01613e09565b955050604087013567ffffffffffffffff811115613ecc57613ecb613cec565b5b613ed889828a01613e09565b945050606087013567ffffffffffffffff811115613ef957613ef8613cec565b5b613f0589828a01613e09565b935050608087013567ffffffffffffffff811115613f2657613f25613cec565b5b613f3289828a01613e09565b92505060a087013567ffffffffffffffff811115613f5357613f52613cec565b5b613f5f89828a01613e09565b9150509295509295509295565b60008115159050919050565b613f8181613f6c565b82525050565b600081519050919050565b600082825260208201905092915050565b60005b83811015613fc1578082015181840152602081019050613fa6565b60008484015250505050565b6000613fd882613f87565b613fe28185613f92565b9350613ff2818560208601613fa3565b613ffb81613cfb565b840191505092915050565b600060408201905061401b6000830185613f78565b818103602083015261402d8184613fcd565b90509392505050565b60007fffffffff0000000000000000000000000000000000000000000000000000000082169050919050565b61406b81614036565b811461407657600080fd5b50565b60008135905061408881614062565b92915050565b6000602082840312156140a4576140a3613ce7565b5b60006140b284828501614079565b91505092915050565b60006020820190506140d06000830184613f78565b92915050565b6000602082840312156140ec576140eb613ce7565b5b600082013567ffffffffffffffff81111561410a57614109613cec565b5b61411684828501613e09565b91505092915050565b6000819050919050565b6141328161411f565b82525050565b600073ffffffffffffffffffffffffffffffffffffffff82169050919050565b600061416382614138565b9050919050565b61417381614158565b82525050565b600082825260208201905092915050565b600061419582613f87565b61419f8185614179565b93506141af818560208601613fa3565b6141b881613cfb565b840191505092915050565b6000610100830160008301516141dc6000860182614129565b5060208301516141ef602086018261416a565b5060408301518482036040860152614207828261418a565b91505060608301518482036060860152614221828261418a565b9150506080830151848203608086015261423b828261418a565b91505060a083015184820360a0860152614255828261418a565b91505060c083015184820360c086015261426f828261418a565b91505060e083015184820360e0860152614289828261418a565b9150508091505092915050565b600060208201905081810360008301526142b081846141c3565b905092915050565b6000819050919050565b6142cb816142b8565b81146142d657600080fd5b50565b6000813590506142e8816142c2565b92915050565b60006020828403121561430457614303613ce7565b5b6000614312848285016142d9565b91505092915050565b614324816142b8565b82525050565b600060208201905061433f600083018461431b565b92915050565b61434e81614158565b811461435957600080fd5b50565b60008135905061436b81614345565b92915050565b6000806040838503121561438857614387613ce7565b5b6000614396858286016142d9565b92505060206143a78582860161435c565b9150509250929050565b600081519050919050565b600082825260208201905092915050565b6000819050602082019050919050565b6143e681613f6c565b82525050565b6000610180830160008301516144056000860182614129565b506020830151614418602086018261416a565b5060408301518482036040860152614430828261418a565b9150506060830151848203606086015261444a828261418a565b91505060808301518482036080860152614464828261418a565b91505060a083015184820360a086015261447e828261418a565b91505060c083015161449360c0860182614129565b5060e08301516144a660e0860182614129565b506101008301516144bb610100860182614129565b506101208301516144d0610120860182614129565b506101408301516144e56101408601826143dd565b506101608301516144fa6101608601826143dd565b508091505092915050565b600061451183836143ec565b905092915050565b6000602082019050919050565b6000614531826143b1565b61453b81856143bc565b93508360208202850161454d856143cd565b8060005b85811015614589578484038952815161456a8582614505565b945061457583614519565b925060208a01995050600181019050614551565b50829750879550505050505092915050565b600060208201905081810360008301526145b58184614526565b905092915050565b6145c68161411f565b81146145d157600080fd5b50565b6000813590506145e3816145bd565b92915050565b60008060008060008060c0878903121561460657614605613ce7565b5b600061461489828a016145d4565b965050602087013567ffffffffffffffff81111561463557614634613cec565b5b61464189828a01613e09565b955050604087013567ffffffffffffffff81111561466257614661613cec565b5b61466e89828a01613e09565b945050606087013567ffffffffffffffff81111561468f5761468e613cec565b5b61469b89828a01613e09565b935050608087013567ffffffffffffffff8111156146bc576146bb613cec565b5b6146c889828a01613e09565b92505060a06146d989828a016145d4565b9150509295509295509295565b600080600080600080600060e0888a03121561470557614704613ce7565b5b60006147138a828b016145d4565b975050602088013567ffffffffffffffff81111561473457614733613cec565b5b6147408a828b01613e09565b965050604088013567ffffffffffffffff81111561476157614760613cec565b5b61476d8a828b01613e09565b955050606088013567ffffffffffffffff81111561478e5761478d613cec565b5b61479a8a828b01613e09565b945050608088013567ffffffffffffffff8111156147bb576147ba613cec565b5b6147c78a828b01613e09565b93505060a088013567ffffffffffffffff8111156147e8576147e7613cec565b5b6147f48a828b01613e09565b92505060c088013567ffffffffffffffff81111561481557614814613cec565b5b6148218a828b01613e09565b91505092959891949750929550565b60006020828403121561484657614845613ce7565b5b6000614854848285016145d4565b91505092915050565b6000610180830160008301516148766000860182614129565b506020830151614889602086018261416a565b50604083015184820360408601526148a1828261418a565b915050606083015184820360608601526148bb828261418a565b915050608083015184820360808601526148d5828261418a565b91505060a083015184820360a08601526148ef828261418a565b91505060c083015161490460c0860182614129565b5060e083015161491760e0860182614129565b5061010083015161492c610100860182614129565b50610120830151614941610120860182614129565b506101408301516149566101408601826143dd565b5061016083015161496b6101608601826143dd565b508091505092915050565b60006020820190508181036000830152614990818461485d565b905092915050565b6149a18161411f565b82525050565b60006020820190506149bc6000830184614998565b92915050565b6149cb81614158565b82525050565b60006020820190506149e660008301846149c2565b92915050565b600080600080600060a08688031215614a0857614a07613ce7565b5b600086013567ffffffffffffffff811115614a2657614a25613cec565b5b614a3288828901613e09565b955050602086013567ffffffffffffffff811115614a5357614a52613cec565b5b614a5f88828901613e09565b945050604086013567ffffffffffffffff811115614a8057614a7f613cec565b5b614a8c88828901613e09565b935050606086013567ffffffffffffffff811115614aad57614aac613cec565b5b614ab988828901613e09565b9250506080614aca888289016145d4565b9150509295509295909350565b600060208284031215614aed57614aec613ce7565b5b6000614afb8482850161435c565b91505092915050565b7f4669727374204e616d652063616e6e6f7420626520656d707479000000000000600082015250565b6000614b3a601a83613f92565b9150614b4582614b04565b602082019050919050565b60006020820190508181036000830152614b6981614b2d565b9050919050565b7f4c617374204e616d652063616e6e6f7420626520656d70747900000000000000600082015250565b6000614ba6601983613f92565b9150614bb182614b70565b602082019050919050565b60006020820190508181036000830152614bd581614b99565b9050919050565b7f55736572204e616d652063616e6e6f7420626520656d70747900000000000000600082015250565b6000614c12601983613f92565b9150614c1d82614bdc565b602082019050919050565b60006020820190508181036000830152614c4181614c05565b9050919050565b7f456d61696c2063616e6e6f7420626520656d7074790000000000000000000000600082015250565b6000614c7e601583613f92565b9150614c8982614c48565b602082019050919050565b60006020820190508181036000830152614cad81614c71565b9050919050565b7f50617373776f72642063616e6e6f7420626520656d7074790000000000000000600082015250565b6000614cea601883613f92565b9150614cf582614cb4565b602082019050919050565b60006020820190508181036000830152614d1981614cdd565b9050919050565b7f50686f6e652063616e6e6f7420626520656d7074790000000000000000000000600082015250565b6000614d56601583613f92565b9150614d6182614d20565b602082019050919050565b60006020820190508181036000830152614d8581614d49565b9050919050565b600081905092915050565b6000614da282613f87565b614dac8185614d8c565b9350614dbc818560208601613fa3565b80840191505092915050565b6000614dd48284614d97565b915081905092915050565b7f4e487b7100000000000000000000000000000000000000000000000000000000600052602260045260246000fd5b60006002820490506001821680614e2657607f821691505b602082108103614e3957614e38614ddf565b5b50919050565b60008190508160005260206000209050919050565b60006020601f8301049050919050565b600082821b905092915050565b600060088302614ea17fffffffffffffffffffffffffffffffffffffffffffffffffffffffffffffffff82614e64565b614eab8683614e64565b95508019841693508086168417925050509392505050565b6000819050919050565b6000614ee8614ee3614ede8461411f565b614ec3565b61411f565b9050919050565b6000819050919050565b614f0283614ecd565b614f16614f0e82614eef565b848454614e71565b825550505050565b600090565b614f2b614f1e565b614f36818484614ef9565b505050565b5b81811015614f5a57614f4f600082614f23565b600181019050614f3c565b5050565b601f821115614f9f57614f7081614e3f565b614f7984614e54565b81016020851015614f88578190505b614f9c614f9485614e54565b830182614f3b565b50505b505050565b600082821c905092915050565b6000614fc260001984600802614fa4565b1980831691505092915050565b6000614fdb8383614fb1565b9150826002028217905092915050565b614ff482613f87565b67ffffffffffffffff81111561500d5761500c613d0c565b5b6150178254614e0e565b615022828285614f5e565b600060209050601f8311600181146150555760008415615043578287015190505b61504d8582614fcf565b8655506150b5565b601f19841661506386614e3f565b60005b8281101561508b57848901518255600182019150602085019450602081019050615066565b868310156150a857848901516150a4601f891682614fb1565b8355505b6001600288020188555050505b505050505050565b7f55736572204e6f7420466f756e64000000000000000000000000000000000000600082015250565b60006150f3600e83613f92565b91506150fe826150bd565b602082019050919050565b60006020820190508181036000830152615122816150e6565b9050919050565b7f4e487b7100000000000000000000000000000000000000000000000000000000600052601160045260246000fd5b60006151638261411f565b91507fffffffffffffffffffffffffffffffffffffffffffffffffffffffffffffffff820361519557615194615129565b5b600182019050919050565b7f4e487b7100000000000000000000000000000000000000000000000000000000600052603260045260246000fd5b7f416363657373436f6e74726f6c3a2063616e206f6e6c792072656e6f756e636560008201527f20726f6c657320666f722073656c660000000000000000000000000000000000602082015250565b600061522b602f83613f92565b9150615236826151cf565b604082019050919050565b6000602082019050818103600083015261525a8161521e565b9050919050565b7f4576656e74204e6f7420466f756e640000000000000000000000000000000000600082015250565b6000615297600f83613f92565b91506152a282615261565b602082019050919050565b600060208201905081810360008301526152c68161528a565b9050919050565b7f556e617574686f72697a656420456e7469747900000000000000000000000000600082015250565b6000615303601383613f92565b915061530e826152cd565b602082019050919050565b60006020820190508181036000830152615332816152f6565b9050919050565b7f4e616d652063616e6e6f7420626520656d707479000000000000000000000000600082015250565b600061536f601483613f92565b915061537a82615339565b602082019050919050565b6000602082019050818103600083015261539e81615362565b9050919050565b7f4465736372697074696f6e2063616e6e6f7420626520656d7074790000000000600082015250565b60006153db601b83613f92565b91506153e6826153a5565b602082019050919050565b6000602082019050818103600083015261540a816153ce565b9050919050565b7f496d6167652063616e6e6f7420626520656d7074790000000000000000000000600082015250565b6000615447601583613f92565b915061545282615411565b602082019050919050565b600060208201905081810360008301526154768161543a565b9050919050565b7f4c6f636174696f6e2063616e6e6f7420626520656d7074790000000000000000600082015250565b60006154b3601883613f92565b91506154be8261547d565b602082019050919050565b600060208201905081810360008301526154e2816154a6565b9050919050565b7f416d6f756e742063616e6e6f74206265207a65726f0000000000000000000000600082015250565b600061551f601583613f92565b915061552a826154e9565b602082019050919050565b6000602082019050818103600083015261554e81615512565b9050919050565b7f4f776e61626c653a206e6577206f776e657220697320746865207a65726f206160008201527f6464726573730000000000000000000000000000000000000000000000000000602082015250565b60006155b1602683613f92565b91506155bc82615555565b604082019050919050565b600060208201905081810360008301526155e0816155a4565b9050919050565b7f4f776e61626c653a2063616c6c6572206973206e6f7420746865206f776e6572600082015250565b600061561d602083613f92565b9150615628826155e7565b602082019050919050565b6000602082019050818103600083015261564c81615610565b9050919050565b7f416363657373436f6e74726f6c3a206163636f756e7420000000000000000000600082015250565b6000615689601783614d8c565b915061569482615653565b601782019050919050565b7f206973206d697373696e6720726f6c6520000000000000000000000000000000600082015250565b60006156d5601183614d8c565b91506156e08261569f565b601182019050919050565b60006156f68261567c565b91506157028285614d97565b915061570d826156c8565b91506157198284614d97565b91508190509392505050565b6000602082019050818103600083015261573f8184613fcd565b905092915050565b60006157528261411f565b915061575d8361411f565b925082820261576b8161411f565b9150828204841483151761578257615781615129565b5b5092915050565b60006157948261411f565b915061579f8361411f565b92508282019050808211156157b7576157b6615129565b5b92915050565b60006157c88261411f565b9150600082036157db576157da615129565b5b600182039050919050565b7f537472696e67733a20686578206c656e67746820696e73756666696369656e74600082015250565b600061581c602083613f92565b9150615827826157e6565b602082019050919050565b6000602082019050818103600083015261584b8161580f565b905091905056fea264697066735822122043deb4d070dc159935f9b6f746c546782835b0fa5f950a022154a7c7e4352d2764736f6c63430008130033",
  "linkReferences": {},
  "deployedLinkReferences": {}
}